{
  "_format": "hh-sol-artifact-1",
  "contractName": "MyNFT",
  "sourceName": "contracts/nft.sol",
  "abi": [
    {
      "inputs": [],
      "stateMutability": "nonpayable",
      "type": "constructor"
    },
    {
      "anonymous": false,
      "inputs": [
        {
          "indexed": true,
          "internalType": "address",
          "name": "owner",
          "type": "address"
        },
        {
          "indexed": true,
          "internalType": "address",
          "name": "approved",
          "type": "address"
        },
        {
          "indexed": true,
          "internalType": "uint256",
          "name": "tokenId",
          "type": "uint256"
        }
      ],
      "name": "Approval",
      "type": "event"
    },
    {
      "anonymous": false,
      "inputs": [
        {
          "indexed": true,
          "internalType": "address",
          "name": "owner",
          "type": "address"
        },
        {
          "indexed": true,
          "internalType": "address",
          "name": "operator",
          "type": "address"
        },
        {
          "indexed": false,
          "internalType": "bool",
          "name": "approved",
          "type": "bool"
        }
      ],
      "name": "ApprovalForAll",
      "type": "event"
    },
    {
      "anonymous": false,
      "inputs": [
        {
          "indexed": true,
          "internalType": "address",
          "name": "previousOwner",
          "type": "address"
        },
        {
          "indexed": true,
          "internalType": "address",
          "name": "newOwner",
          "type": "address"
        }
      ],
      "name": "OwnershipTransferred",
      "type": "event"
    },
    {
      "anonymous": false,
      "inputs": [
        {
          "indexed": true,
          "internalType": "address",
          "name": "from",
          "type": "address"
        },
        {
          "indexed": true,
          "internalType": "address",
          "name": "to",
          "type": "address"
        },
        {
          "indexed": true,
          "internalType": "uint256",
          "name": "tokenId",
          "type": "uint256"
        }
      ],
      "name": "Transfer",
      "type": "event"
    },
    {
      "inputs": [],
      "name": "MAX_TOTAL_SUPPLY",
      "outputs": [
        {
          "internalType": "uint256",
          "name": "",
          "type": "uint256"
        }
      ],
      "stateMutability": "view",
      "type": "function"
    },
    {
      "inputs": [
        {
          "internalType": "address",
          "name": "to",
          "type": "address"
        },
        {
          "internalType": "uint256",
          "name": "tokenId",
          "type": "uint256"
        }
      ],
      "name": "approve",
      "outputs": [],
      "stateMutability": "nonpayable",
      "type": "function"
    },
    {
      "inputs": [
        {
          "internalType": "address",
          "name": "owner",
          "type": "address"
        }
      ],
      "name": "balanceOf",
      "outputs": [
        {
          "internalType": "uint256",
          "name": "",
          "type": "uint256"
        }
      ],
      "stateMutability": "view",
      "type": "function"
    },
    {
      "inputs": [],
      "name": "contractURI",
      "outputs": [
        {
          "internalType": "string",
          "name": "",
          "type": "string"
        }
      ],
      "stateMutability": "view",
      "type": "function"
    },
    {
      "inputs": [
        {
          "internalType": "uint256",
          "name": "tokenId",
          "type": "uint256"
        }
      ],
      "name": "getApproved",
      "outputs": [
        {
          "internalType": "address",
          "name": "",
          "type": "address"
        }
      ],
      "stateMutability": "view",
      "type": "function"
    },
    {
      "inputs": [],
      "name": "getBaseURI",
      "outputs": [
        {
          "internalType": "string",
          "name": "",
          "type": "string"
        }
      ],
      "stateMutability": "view",
      "type": "function"
    },
    {
      "inputs": [],
      "name": "getContractURI",
      "outputs": [
        {
          "internalType": "string",
          "name": "",
          "type": "string"
        }
      ],
      "stateMutability": "view",
      "type": "function"
    },
    {
      "inputs": [],
      "name": "getLastTokenId",
      "outputs": [
        {
          "internalType": "uint256",
          "name": "",
          "type": "uint256"
        }
      ],
      "stateMutability": "view",
      "type": "function"
    },
    {
      "inputs": [
        {
          "internalType": "address",
          "name": "owner",
          "type": "address"
        },
        {
          "internalType": "address",
          "name": "operator",
          "type": "address"
        }
      ],
      "name": "isApprovedForAll",
      "outputs": [
        {
          "internalType": "bool",
          "name": "",
          "type": "bool"
        }
      ],
      "stateMutability": "view",
      "type": "function"
    },
    {
      "inputs": [],
      "name": "mint",
      "outputs": [],
      "stateMutability": "payable",
      "type": "function"
    },
    {
      "inputs": [],
      "name": "mintState",
      "outputs": [
        {
          "internalType": "enum MyNFT.MintState",
          "name": "",
          "type": "uint8"
        }
      ],
      "stateMutability": "view",
      "type": "function"
    },
    {
      "inputs": [],
      "name": "name",
      "outputs": [
        {
          "internalType": "string",
          "name": "",
          "type": "string"
        }
      ],
      "stateMutability": "view",
      "type": "function"
    },
    {
      "inputs": [],
      "name": "numReservedTokens",
      "outputs": [
        {
          "internalType": "uint256",
          "name": "",
          "type": "uint256"
        }
      ],
      "stateMutability": "view",
      "type": "function"
    },
    {
      "inputs": [],
      "name": "owner",
      "outputs": [
        {
          "internalType": "address",
          "name": "",
          "type": "address"
        }
      ],
      "stateMutability": "view",
      "type": "function"
    },
    {
      "inputs": [
        {
          "internalType": "uint256",
          "name": "tokenId",
          "type": "uint256"
        }
      ],
      "name": "ownerOf",
      "outputs": [
        {
          "internalType": "address",
          "name": "",
          "type": "address"
        }
      ],
      "stateMutability": "view",
      "type": "function"
    },
    {
      "inputs": [],
      "name": "renounceOwnership",
      "outputs": [],
      "stateMutability": "nonpayable",
      "type": "function"
    },
    {
      "inputs": [
        {
          "internalType": "address",
          "name": "from",
          "type": "address"
        },
        {
          "internalType": "address",
          "name": "to",
          "type": "address"
        },
        {
          "internalType": "uint256",
          "name": "tokenId",
          "type": "uint256"
        }
      ],
      "name": "safeTransferFrom",
      "outputs": [],
      "stateMutability": "nonpayable",
      "type": "function"
    },
    {
      "inputs": [
        {
          "internalType": "address",
          "name": "from",
          "type": "address"
        },
        {
          "internalType": "address",
          "name": "to",
          "type": "address"
        },
        {
          "internalType": "uint256",
          "name": "tokenId",
          "type": "uint256"
        },
        {
          "internalType": "bytes",
          "name": "data",
          "type": "bytes"
        }
      ],
      "name": "safeTransferFrom",
      "outputs": [],
      "stateMutability": "nonpayable",
      "type": "function"
    },
    {
      "inputs": [
        {
          "internalType": "address",
          "name": "operator",
          "type": "address"
        },
        {
          "internalType": "bool",
          "name": "approved",
          "type": "bool"
        }
      ],
      "name": "setApprovalForAll",
      "outputs": [],
      "stateMutability": "nonpayable",
      "type": "function"
    },
    {
      "inputs": [
        {
          "internalType": "string",
          "name": "_baseURI",
          "type": "string"
        }
      ],
      "name": "setBaseURI",
      "outputs": [],
      "stateMutability": "nonpayable",
      "type": "function"
    },
    {
      "inputs": [
        {
          "internalType": "string",
          "name": "_collectionURI",
          "type": "string"
        }
      ],
      "name": "setCollectionURI",
      "outputs": [],
      "stateMutability": "nonpayable",
      "type": "function"
    },
    {
      "inputs": [],
      "name": "setMintActive",
      "outputs": [],
      "stateMutability": "nonpayable",
      "type": "function"
    },
    {
      "inputs": [],
      "name": "setMintInactive",
      "outputs": [],
      "stateMutability": "nonpayable",
      "type": "function"
    },
    {
      "inputs": [
        {
          "internalType": "bytes4",
          "name": "interfaceId",
          "type": "bytes4"
        }
      ],
      "name": "supportsInterface",
      "outputs": [
        {
          "internalType": "bool",
          "name": "",
          "type": "bool"
        }
      ],
      "stateMutability": "view",
      "type": "function"
    },
    {
      "inputs": [],
      "name": "symbol",
      "outputs": [
        {
          "internalType": "string",
          "name": "",
          "type": "string"
        }
      ],
      "stateMutability": "view",
      "type": "function"
    },
    {
      "inputs": [
        {
          "internalType": "uint256",
          "name": "tokenId",
          "type": "uint256"
        }
      ],
      "name": "tokenURI",
      "outputs": [
        {
          "internalType": "string",
          "name": "",
          "type": "string"
        }
      ],
      "stateMutability": "view",
      "type": "function"
    },
    {
      "inputs": [
        {
          "internalType": "address",
          "name": "from",
          "type": "address"
        },
        {
          "internalType": "address",
          "name": "to",
          "type": "address"
        },
        {
          "internalType": "uint256",
          "name": "tokenId",
          "type": "uint256"
        }
      ],
      "name": "transferFrom",
      "outputs": [],
      "stateMutability": "nonpayable",
      "type": "function"
    },
    {
      "inputs": [
        {
          "internalType": "address",
          "name": "newOwner",
          "type": "address"
        }
      ],
      "name": "transferOwnership",
      "outputs": [],
      "stateMutability": "nonpayable",
      "type": "function"
    },
    {
      "inputs": [],
      "name": "withdraw",
      "outputs": [],
      "stateMutability": "nonpayable",
      "type": "function"
    },
    {
      "inputs": [
        {
          "internalType": "contract IERC20",
          "name": "token",
          "type": "address"
        }
      ],
      "name": "withdrawTokens",
      "outputs": [],
      "stateMutability": "nonpayable",
      "type": "function"
    },
    {
      "stateMutability": "payable",
      "type": "receive"
    }
  ],
  "bytecode": "0x60806040526000600c60006101000a81548160ff0219169083600181111562000051577f4e487b7100000000000000000000000000000000000000000000000000000000600052602160045260246000fd5b02179055503480156200006357600080fd5b506040518060400160405280601081526020017f506c61737469632042616773204e4654000000000000000000000000000000008152506040518060400160405280600581526020017f50424e46540000000000000000000000000000000000000000000000000000008152508160009080519060200190620000e892919062000200565b5080600190805190602001906200010192919062000200565b50505062000124620001186200013260201b60201c565b6200013a60201b60201c565b600160078190555062000315565b600033905090565b6000600660009054906101000a900473ffffffffffffffffffffffffffffffffffffffff16905081600660006101000a81548173ffffffffffffffffffffffffffffffffffffffff021916908373ffffffffffffffffffffffffffffffffffffffff1602179055508173ffffffffffffffffffffffffffffffffffffffff168173ffffffffffffffffffffffffffffffffffffffff167f8be0079c531659141344cd1fd0a4f28419497f9722a3daafe3b4186f6b6457e060405160405180910390a35050565b8280546200020e90620002b0565b90600052602060002090601f0160209004810192826200023257600085556200027e565b82601f106200024d57805160ff19168380011785556200027e565b828001600101855582156200027e579182015b828111156200027d57825182559160200191906001019062000260565b5b5090506200028d919062000291565b5090565b5b80821115620002ac57600081600090555060010162000292565b5090565b60006002820490506001821680620002c957607f821691505b60208210811415620002e057620002df620002e6565b5b50919050565b7f4e487b7100000000000000000000000000000000000000000000000000000000600052602260045260246000fd5b61388980620003256000396000f3fe6080604052600436106101d15760003560e01c806358cd080c116100f757806395d89b4111610095578063c87b56dd11610064578063c87b56dd14610602578063e8a3d4851461063f578063e985e9c51461066a578063f2fde38b146106a7576101d8565b806395d89b411461055a578063a22cb46514610585578063b88d4fde146105ae578063c051e38a146105d7576101d8565b8063714c5398116100d1578063714c5398146104c2578063715018a6146104ed57806383c4c00d146105045780638da5cb5b1461052f576101d8565b806358cd080c146104315780636352211e1461044857806370a0823114610485576101d8565b80632639f4601161016f5780633ccfd60b1161013e5780633ccfd60b1461039f57806342842e0e146103b657806349df728c146103df57806355f804b314610408576101d8565b80632639f4601461030957806333039d3d14610332578063358338d51461035d57806337929eb414610374576101d8565b8063095ea7b3116101ab578063095ea7b31461028257806311e3dbca146102ab5780631249c58b146102d657806323b872dd146102e0576101d8565b806301ffc9a7146101dd57806306fdde031461021a578063081812fc14610245576101d8565b366101d857005b600080fd5b3480156101e957600080fd5b5061020460048036038101906101ff9190612663565b6106d0565b6040516102119190612c55565b60405180910390f35b34801561022657600080fd5b5061022f6107b2565b60405161023c9190612c8b565b60405180910390f35b34801561025157600080fd5b5061026c6004803603810190610267919061271f565b610844565b6040516102799190612bc5565b60405180910390f35b34801561028e57600080fd5b506102a960048036038101906102a491906125fe565b61088a565b005b3480156102b757600080fd5b506102c06109a2565b6040516102cd9190612eed565b60405180910390f35b6102de6109a8565b005b3480156102ec57600080fd5b50610307600480360381019061030291906124f8565b610b6c565b005b34801561031557600080fd5b50610330600480360381019061032b91906126de565b610bcc565b005b34801561033e57600080fd5b50610347610bee565b6040516103549190612eed565b60405180910390f35b34801561036957600080fd5b50610372610bf4565b005b34801561038057600080fd5b50610389610c4f565b6040516103969190612c8b565b60405180910390f35b3480156103ab57600080fd5b506103b4610ce1565b005b3480156103c257600080fd5b506103dd60048036038101906103d891906124f8565b610d38565b005b3480156103eb57600080fd5b50610406600480360381019061040191906126b5565b610d58565b005b34801561041457600080fd5b5061042f600480360381019061042a91906126de565b610e7f565b005b34801561043d57600080fd5b50610446610ea1565b005b34801561045457600080fd5b5061046f600480360381019061046a919061271f565b610efc565b60405161047c9190612bc5565b60405180910390f35b34801561049157600080fd5b506104ac60048036038101906104a79190612493565b610fae565b6040516104b99190612eed565b60405180910390f35b3480156104ce57600080fd5b506104d7611066565b6040516104e49190612c8b565b60405180910390f35b3480156104f957600080fd5b506105026110f8565b005b34801561051057600080fd5b5061051961110c565b6040516105269190612eed565b60405180910390f35b34801561053b57600080fd5b5061054461111d565b6040516105519190612bc5565b60405180910390f35b34801561056657600080fd5b5061056f611147565b60405161057c9190612c8b565b60405180910390f35b34801561059157600080fd5b506105ac60048036038101906105a791906125c2565b6111d9565b005b3480156105ba57600080fd5b506105d560048036038101906105d09190612547565b6111ef565b005b3480156105e357600080fd5b506105ec611251565b6040516105f99190612c70565b60405180910390f35b34801561060e57600080fd5b506106296004803603810190610624919061271f565b611264565b6040516106369190612c8b565b60405180910390f35b34801561064b57600080fd5b506106546112e0565b6040516106619190612c8b565b60405180910390f35b34801561067657600080fd5b50610691600480360381019061068c91906124bc565b611372565b60405161069e9190612c55565b60405180910390f35b3480156106b357600080fd5b506106ce60048036038101906106c99190612493565b611406565b005b60007f80ac58cd000000000000000000000000000000000000000000000000000000007bffffffffffffffffffffffffffffffffffffffffffffffffffffffff1916827bffffffffffffffffffffffffffffffffffffffffffffffffffffffff1916148061079b57507f5b5e139f000000000000000000000000000000000000000000000000000000007bffffffffffffffffffffffffffffffffffffffffffffffffffffffff1916827bffffffffffffffffffffffffffffffffffffffffffffffffffffffff1916145b806107ab57506107aa8261148a565b5b9050919050565b6060600080546107c19061318f565b80601f01602080910402602001604051908101604052809291908181526020018280546107ed9061318f565b801561083a5780601f1061080f5761010080835404028352916020019161083a565b820191906000526020600020905b81548152906001019060200180831161081d57829003601f168201915b5050505050905090565b600061084f826114f4565b6004600083815260200190815260200160002060009054906101000a900473ffffffffffffffffffffffffffffffffffffffff169050919050565b600061089582610efc565b90508073ffffffffffffffffffffffffffffffffffffffff168373ffffffffffffffffffffffffffffffffffffffff161415610906576040517f08c379a00000000000000000000000000000000000000000000000000000000081526004016108fd90612e6d565b60405180910390fd5b8073ffffffffffffffffffffffffffffffffffffffff1661092561153f565b73ffffffffffffffffffffffffffffffffffffffff16148061095457506109538161094e61153f565b611372565b5b610993576040517f08c379a000000000000000000000000000000000000000000000000000000000815260040161098a90612ded565b60405180910390fd5b61099d8383611547565b505050565b600b5481565b600260075414156109ee576040517f08c379a00000000000000000000000000000000000000000000000000000000081526004016109e590612ead565b60405180910390fd5b6002600781905550600180811115610a2f577f4e487b7100000000000000000000000000000000000000000000000000000000600052602160045260246000fd5b600c60009054906101000a900460ff166001811115610a77577f4e487b7100000000000000000000000000000000000000000000000000000000600052602160045260246000fd5b14610ab7576040517f08c379a0000000000000000000000000000000000000000000000000000000008152600401610aae90612ecd565b60405180910390fd5b611388610ac46008611600565b1115610b05576040517f08c379a0000000000000000000000000000000000000000000000000000000008152600401610afc90612d6d565b60405180910390fd5b6001610b1033610fae565b1115610b51576040517f08c379a0000000000000000000000000000000000000000000000000000000008152600401610b4890612dcd565b60405180910390fd5b610b6233610b5d61160e565b611629565b6001600781905550565b610b7d610b7761153f565b82611647565b610bbc576040517f08c379a0000000000000000000000000000000000000000000000000000000008152600401610bb390612e8d565b60405180910390fd5b610bc78383836116dc565b505050565b610bd4611943565b80600a9080519060200190610bea929190612278565b5050565b61138881565b610bfc611943565b6000600c60006101000a81548160ff02191690836001811115610c48577f4e487b7100000000000000000000000000000000000000000000000000000000600052602160045260246000fd5b0217905550565b6060600a8054610c5e9061318f565b80601f0160208091040260200160405190810160405280929190818152602001828054610c8a9061318f565b8015610cd75780601f10610cac57610100808354040283529160200191610cd7565b820191906000526020600020905b815481529060010190602001808311610cba57829003601f168201915b5050505050905090565b610ce9611943565b60004790503373ffffffffffffffffffffffffffffffffffffffff166108fc829081150290604051600060405180830381858888f19350505050158015610d34573d6000803e3d6000fd5b5050565b610d53838383604051806020016040528060008152506111ef565b505050565b610d60611943565b60008173ffffffffffffffffffffffffffffffffffffffff166370a08231306040518263ffffffff1660e01b8152600401610d9b9190612bc5565b60206040518083038186803b158015610db357600080fd5b505afa158015610dc7573d6000803e3d6000fd5b505050506040513d601f19601f82011682018060405250810190610deb9190612748565b90508173ffffffffffffffffffffffffffffffffffffffff1663a9059cbb33836040518363ffffffff1660e01b8152600401610e28929190612c2c565b602060405180830381600087803b158015610e4257600080fd5b505af1158015610e56573d6000803e3d6000fd5b505050506040513d601f19601f82011682018060405250810190610e7a919061263a565b505050565b610e87611943565b8060099080519060200190610e9d929190612278565b5050565b610ea9611943565b6001600c60006101000a81548160ff02191690836001811115610ef5577f4e487b7100000000000000000000000000000000000000000000000000000000600052602160045260246000fd5b0217905550565b6000806002600084815260200190815260200160002060009054906101000a900473ffffffffffffffffffffffffffffffffffffffff169050600073ffffffffffffffffffffffffffffffffffffffff168173ffffffffffffffffffffffffffffffffffffffff161415610fa5576040517f08c379a0000000000000000000000000000000000000000000000000000000008152600401610f9c90612e4d565b60405180910390fd5b80915050919050565b60008073ffffffffffffffffffffffffffffffffffffffff168273ffffffffffffffffffffffffffffffffffffffff16141561101f576040517f08c379a000000000000000000000000000000000000000000000000000000000815260040161101690612d8d565b60405180910390fd5b600360008373ffffffffffffffffffffffffffffffffffffffff1673ffffffffffffffffffffffffffffffffffffffff168152602001908152602001600020549050919050565b6060600980546110759061318f565b80601f01602080910402602001604051908101604052809291908181526020018280546110a19061318f565b80156110ee5780601f106110c3576101008083540402835291602001916110ee565b820191906000526020600020905b8154815290600101906020018083116110d157829003601f168201915b5050505050905090565b611100611943565b61110a60006119c1565b565b60006111186008611600565b905090565b6000600660009054906101000a900473ffffffffffffffffffffffffffffffffffffffff16905090565b6060600180546111569061318f565b80601f01602080910402602001604051908101604052809291908181526020018280546111829061318f565b80156111cf5780601f106111a4576101008083540402835291602001916111cf565b820191906000526020600020905b8154815290600101906020018083116111b257829003601f168201915b5050505050905090565b6111eb6111e461153f565b8383611a87565b5050565b6112006111fa61153f565b83611647565b61123f576040517f08c379a000000000000000000000000000000000000000000000000000000000815260040161123690612e8d565b60405180910390fd5b61124b84848484611bf4565b50505050565b600c60009054906101000a900460ff1681565b606061126f82611c50565b6112ae576040517f08c379a00000000000000000000000000000000000000000000000000000000081526004016112a590612dad565b60405180910390fd5b60096112b983611cbc565b6040516020016112ca929190612b8b565b6040516020818303038152906040529050919050565b6060600a80546112ef9061318f565b80601f016020809104026020016040519081016040528092919081815260200182805461131b9061318f565b80156113685780601f1061133d57610100808354040283529160200191611368565b820191906000526020600020905b81548152906001019060200180831161134b57829003601f168201915b5050505050905090565b6000600560008473ffffffffffffffffffffffffffffffffffffffff1673ffffffffffffffffffffffffffffffffffffffff16815260200190815260200160002060008373ffffffffffffffffffffffffffffffffffffffff1673ffffffffffffffffffffffffffffffffffffffff16815260200190815260200160002060009054906101000a900460ff16905092915050565b61140e611943565b600073ffffffffffffffffffffffffffffffffffffffff168173ffffffffffffffffffffffffffffffffffffffff16141561147e576040517f08c379a000000000000000000000000000000000000000000000000000000000815260040161147590612ccd565b60405180910390fd5b611487816119c1565b50565b60007f01ffc9a7000000000000000000000000000000000000000000000000000000007bffffffffffffffffffffffffffffffffffffffffffffffffffffffff1916827bffffffffffffffffffffffffffffffffffffffffffffffffffffffff1916149050919050565b6114fd81611c50565b61153c576040517f08c379a000000000000000000000000000000000000000000000000000000000815260040161153390612e4d565b60405180910390fd5b50565b600033905090565b816004600083815260200190815260200160002060006101000a81548173ffffffffffffffffffffffffffffffffffffffff021916908373ffffffffffffffffffffffffffffffffffffffff160217905550808273ffffffffffffffffffffffffffffffffffffffff166115ba83610efc565b73ffffffffffffffffffffffffffffffffffffffff167f8c5be1e5ebec7d5bd14f71427d1e84f3dd0314c0f7b2291e5b200ac8c7c3b92560405160405180910390a45050565b600081600001549050919050565b600061161a6008611e69565b6116246008611600565b905090565b611643828260405180602001604052806000815250611e7f565b5050565b60008061165383610efc565b90508073ffffffffffffffffffffffffffffffffffffffff168473ffffffffffffffffffffffffffffffffffffffff16148061169557506116948185611372565b5b806116d357508373ffffffffffffffffffffffffffffffffffffffff166116bb84610844565b73ffffffffffffffffffffffffffffffffffffffff16145b91505092915050565b8273ffffffffffffffffffffffffffffffffffffffff166116fc82610efc565b73ffffffffffffffffffffffffffffffffffffffff1614611752576040517f08c379a000000000000000000000000000000000000000000000000000000000815260040161174990612ced565b60405180910390fd5b600073ffffffffffffffffffffffffffffffffffffffff168273ffffffffffffffffffffffffffffffffffffffff1614156117c2576040517f08c379a00000000000000000000000000000000000000000000000000000000081526004016117b990612d2d565b60405180910390fd5b6117cd838383611eda565b6117d8600082611547565b6001600360008573ffffffffffffffffffffffffffffffffffffffff1673ffffffffffffffffffffffffffffffffffffffff1681526020019081526020016000206000828254611828919061306e565b925050819055506001600360008473ffffffffffffffffffffffffffffffffffffffff1673ffffffffffffffffffffffffffffffffffffffff168152602001908152602001600020600082825461187f9190612fe7565b92505081905550816002600083815260200190815260200160002060006101000a81548173ffffffffffffffffffffffffffffffffffffffff021916908373ffffffffffffffffffffffffffffffffffffffff160217905550808273ffffffffffffffffffffffffffffffffffffffff168473ffffffffffffffffffffffffffffffffffffffff167fddf252ad1be2c89b69c2b068fc378daa952ba7f163c4a11628f55a4df523b3ef60405160405180910390a461193e838383611edf565b505050565b61194b61153f565b73ffffffffffffffffffffffffffffffffffffffff1661196961111d565b73ffffffffffffffffffffffffffffffffffffffff16146119bf576040517f08c379a00000000000000000000000000000000000000000000000000000000081526004016119b690612e2d565b60405180910390fd5b565b6000600660009054906101000a900473ffffffffffffffffffffffffffffffffffffffff16905081600660006101000a81548173ffffffffffffffffffffffffffffffffffffffff021916908373ffffffffffffffffffffffffffffffffffffffff1602179055508173ffffffffffffffffffffffffffffffffffffffff168173ffffffffffffffffffffffffffffffffffffffff167f8be0079c531659141344cd1fd0a4f28419497f9722a3daafe3b4186f6b6457e060405160405180910390a35050565b8173ffffffffffffffffffffffffffffffffffffffff168373ffffffffffffffffffffffffffffffffffffffff161415611af6576040517f08c379a0000000000000000000000000000000000000000000000000000000008152600401611aed90612d4d565b60405180910390fd5b80600560008573ffffffffffffffffffffffffffffffffffffffff1673ffffffffffffffffffffffffffffffffffffffff16815260200190815260200160002060008473ffffffffffffffffffffffffffffffffffffffff1673ffffffffffffffffffffffffffffffffffffffff16815260200190815260200160002060006101000a81548160ff0219169083151502179055508173ffffffffffffffffffffffffffffffffffffffff168373ffffffffffffffffffffffffffffffffffffffff167f17307eab39ab6107e8899845ad3d59bd9653f200f220920489ca2b5937696c3183604051611be79190612c55565b60405180910390a3505050565b611bff8484846116dc565b611c0b84848484611ee4565b611c4a576040517f08c379a0000000000000000000000000000000000000000000000000000000008152600401611c4190612cad565b60405180910390fd5b50505050565b60008073ffffffffffffffffffffffffffffffffffffffff166002600084815260200190815260200160002060009054906101000a900473ffffffffffffffffffffffffffffffffffffffff1673ffffffffffffffffffffffffffffffffffffffff1614159050919050565b60606000821415611d04576040518060400160405280600181526020017f30000000000000000000000000000000000000000000000000000000000000008152509050611e64565b600082905060005b60008214611d36578080611d1f906131f2565b915050600a82611d2f919061303d565b9150611d0c565b60008167ffffffffffffffff811115611d78577f4e487b7100000000000000000000000000000000000000000000000000000000600052604160045260246000fd5b6040519080825280601f01601f191660200182016040528015611daa5781602001600182028036833780820191505090505b5090505b60008514611e5d57600182611dc3919061306e565b9150600a85611dd2919061323b565b6030611dde9190612fe7565b60f81b818381518110611e1a577f4e487b7100000000000000000000000000000000000000000000000000000000600052603260045260246000fd5b60200101907effffffffffffffffffffffffffffffffffffffffffffffffffffffffffffff1916908160001a905350600a85611e56919061303d565b9450611dae565b8093505050505b919050565b6001816000016000828254019250508190555050565b611e89838361207b565b611e966000848484611ee4565b611ed5576040517f08c379a0000000000000000000000000000000000000000000000000000000008152600401611ecc90612cad565b60405180910390fd5b505050565b505050565b505050565b6000611f058473ffffffffffffffffffffffffffffffffffffffff16612255565b1561206e578373ffffffffffffffffffffffffffffffffffffffff1663150b7a02611f2e61153f565b8786866040518563ffffffff1660e01b8152600401611f509493929190612be0565b602060405180830381600087803b158015611f6a57600080fd5b505af1925050508015611f9b57506040513d601f19601f82011682018060405250810190611f98919061268c565b60015b61201e573d8060008114611fcb576040519150601f19603f3d011682016040523d82523d6000602084013e611fd0565b606091505b50600081511415612016576040517f08c379a000000000000000000000000000000000000000000000000000000000815260040161200d90612cad565b60405180910390fd5b805181602001fd5b63150b7a0260e01b7bffffffffffffffffffffffffffffffffffffffffffffffffffffffff1916817bffffffffffffffffffffffffffffffffffffffffffffffffffffffff191614915050612073565b600190505b949350505050565b600073ffffffffffffffffffffffffffffffffffffffff168273ffffffffffffffffffffffffffffffffffffffff1614156120eb576040517f08c379a00000000000000000000000000000000000000000000000000000000081526004016120e290612e0d565b60405180910390fd5b6120f481611c50565b15612134576040517f08c379a000000000000000000000000000000000000000000000000000000000815260040161212b90612d0d565b60405180910390fd5b61214060008383611eda565b6001600360008473ffffffffffffffffffffffffffffffffffffffff1673ffffffffffffffffffffffffffffffffffffffff16815260200190815260200160002060008282546121909190612fe7565b92505081905550816002600083815260200190815260200160002060006101000a81548173ffffffffffffffffffffffffffffffffffffffff021916908373ffffffffffffffffffffffffffffffffffffffff160217905550808273ffffffffffffffffffffffffffffffffffffffff16600073ffffffffffffffffffffffffffffffffffffffff167fddf252ad1be2c89b69c2b068fc378daa952ba7f163c4a11628f55a4df523b3ef60405160405180910390a461225160008383611edf565b5050565b6000808273ffffffffffffffffffffffffffffffffffffffff163b119050919050565b8280546122849061318f565b90600052602060002090601f0160209004810192826122a657600085556122ed565b82601f106122bf57805160ff19168380011785556122ed565b828001600101855582156122ed579182015b828111156122ec5782518255916020019190600101906122d1565b5b5090506122fa91906122fe565b5090565b5b808211156123175760008160009055506001016122ff565b5090565b600061232e61232984612f2d565b612f08565b90508281526020810184848401111561234657600080fd5b61235184828561314d565b509392505050565b600061236c61236784612f5e565b612f08565b90508281526020810184848401111561238457600080fd5b61238f84828561314d565b509392505050565b6000813590506123a6816137e0565b92915050565b6000813590506123bb816137f7565b92915050565b6000815190506123d0816137f7565b92915050565b6000813590506123e58161380e565b92915050565b6000815190506123fa8161380e565b92915050565b600082601f83011261241157600080fd5b813561242184826020860161231b565b91505092915050565b60008135905061243981613825565b92915050565b600082601f83011261245057600080fd5b8135612460848260208601612359565b91505092915050565b6000813590506124788161383c565b92915050565b60008151905061248d8161383c565b92915050565b6000602082840312156124a557600080fd5b60006124b384828501612397565b91505092915050565b600080604083850312156124cf57600080fd5b60006124dd85828601612397565b92505060206124ee85828601612397565b9150509250929050565b60008060006060848603121561250d57600080fd5b600061251b86828701612397565b935050602061252c86828701612397565b925050604061253d86828701612469565b9150509250925092565b6000806000806080858703121561255d57600080fd5b600061256b87828801612397565b945050602061257c87828801612397565b935050604061258d87828801612469565b925050606085013567ffffffffffffffff8111156125aa57600080fd5b6125b687828801612400565b91505092959194509250565b600080604083850312156125d557600080fd5b60006125e385828601612397565b92505060206125f4858286016123ac565b9150509250929050565b6000806040838503121561261157600080fd5b600061261f85828601612397565b925050602061263085828601612469565b9150509250929050565b60006020828403121561264c57600080fd5b600061265a848285016123c1565b91505092915050565b60006020828403121561267557600080fd5b6000612683848285016123d6565b91505092915050565b60006020828403121561269e57600080fd5b60006126ac848285016123eb565b91505092915050565b6000602082840312156126c757600080fd5b60006126d58482850161242a565b91505092915050565b6000602082840312156126f057600080fd5b600082013567ffffffffffffffff81111561270a57600080fd5b6127168482850161243f565b91505092915050565b60006020828403121561273157600080fd5b600061273f84828501612469565b91505092915050565b60006020828403121561275a57600080fd5b60006127688482850161247e565b91505092915050565b61277a816130a2565b82525050565b612789816130b4565b82525050565b600061279a82612fa4565b6127a48185612fba565b93506127b481856020860161315c565b6127bd81613357565b840191505092915050565b6127d18161313b565b82525050565b60006127e282612faf565b6127ec8185612fcb565b93506127fc81856020860161315c565b61280581613357565b840191505092915050565b600061281b82612faf565b6128258185612fdc565b935061283581856020860161315c565b80840191505092915050565b6000815461284e8161318f565b6128588186612fdc565b945060018216600081146128735760018114612884576128b7565b60ff198316865281860193506128b7565b61288d85612f8f565b60005b838110156128af57815481890152600182019150602081019050612890565b838801955050505b50505092915050565b60006128cd603283612fcb565b91506128d882613368565b604082019050919050565b60006128f0602683612fcb565b91506128fb826133b7565b604082019050919050565b6000612913602583612fcb565b915061291e82613406565b604082019050919050565b6000612936601c83612fcb565b915061294182613455565b602082019050919050565b6000612959602483612fcb565b91506129648261347e565b604082019050919050565b600061297c601983612fcb565b9150612987826134cd565b602082019050919050565b600061299f601d83612fcb565b91506129aa826134f6565b602082019050919050565b60006129c2602983612fcb565b91506129cd8261351f565b604082019050919050565b60006129e5601283612fcb565b91506129f08261356e565b602082019050919050565b6000612a08601c83612fcb565b9150612a1382613597565b602082019050919050565b6000612a2b603e83612fcb565b9150612a36826135c0565b604082019050919050565b6000612a4e602083612fcb565b9150612a598261360f565b602082019050919050565b6000612a71600583612fdc565b9150612a7c82613638565b600582019050919050565b6000612a94602083612fcb565b9150612a9f82613661565b602082019050919050565b6000612ab7601883612fcb565b9150612ac28261368a565b602082019050919050565b6000612ada602183612fcb565b9150612ae5826136b3565b604082019050919050565b6000612afd602e83612fcb565b9150612b0882613702565b604082019050919050565b6000612b20601f83612fcb565b9150612b2b82613751565b602082019050919050565b6000612b43601783612fcb565b9150612b4e8261377a565b602082019050919050565b6000612b66600183612fdc565b9150612b71826137a3565b600182019050919050565b612b8581613131565b82525050565b6000612b978285612841565b9150612ba282612b59565b9150612bae8284612810565b9150612bb982612a64565b91508190509392505050565b6000602082019050612bda6000830184612771565b92915050565b6000608082019050612bf56000830187612771565b612c026020830186612771565b612c0f6040830185612b7c565b8181036060830152612c21818461278f565b905095945050505050565b6000604082019050612c416000830185612771565b612c4e6020830184612b7c565b9392505050565b6000602082019050612c6a6000830184612780565b92915050565b6000602082019050612c8560008301846127c8565b92915050565b60006020820190508181036000830152612ca581846127d7565b905092915050565b60006020820190508181036000830152612cc6816128c0565b9050919050565b60006020820190508181036000830152612ce6816128e3565b9050919050565b60006020820190508181036000830152612d0681612906565b9050919050565b60006020820190508181036000830152612d2681612929565b9050919050565b60006020820190508181036000830152612d468161294c565b9050919050565b60006020820190508181036000830152612d668161296f565b9050919050565b60006020820190508181036000830152612d8681612992565b9050919050565b60006020820190508181036000830152612da6816129b5565b9050919050565b60006020820190508181036000830152612dc6816129d8565b9050919050565b60006020820190508181036000830152612de6816129fb565b9050919050565b60006020820190508181036000830152612e0681612a1e565b9050919050565b60006020820190508181036000830152612e2681612a41565b9050919050565b60006020820190508181036000830152612e4681612a87565b9050919050565b60006020820190508181036000830152612e6681612aaa565b9050919050565b60006020820190508181036000830152612e8681612acd565b9050919050565b60006020820190508181036000830152612ea681612af0565b9050919050565b60006020820190508181036000830152612ec681612b13565b9050919050565b60006020820190508181036000830152612ee681612b36565b9050919050565b6000602082019050612f026000830184612b7c565b92915050565b6000612f12612f23565b9050612f1e82826131c1565b919050565b6000604051905090565b600067ffffffffffffffff821115612f4857612f47613328565b5b612f5182613357565b9050602081019050919050565b600067ffffffffffffffff821115612f7957612f78613328565b5b612f8282613357565b9050602081019050919050565b60008190508160005260206000209050919050565b600081519050919050565b600081519050919050565b600082825260208201905092915050565b600082825260208201905092915050565b600081905092915050565b6000612ff282613131565b9150612ffd83613131565b9250827fffffffffffffffffffffffffffffffffffffffffffffffffffffffffffffffff038211156130325761303161326c565b5b828201905092915050565b600061304882613131565b915061305383613131565b9250826130635761306261329b565b5b828204905092915050565b600061307982613131565b915061308483613131565b9250828210156130975761309661326c565b5b828203905092915050565b60006130ad82613111565b9050919050565b60008115159050919050565b60007fffffffff0000000000000000000000000000000000000000000000000000000082169050919050565b60006130f7826130a2565b9050919050565b600081905061310c826137cc565b919050565b600073ffffffffffffffffffffffffffffffffffffffff82169050919050565b6000819050919050565b6000613146826130fe565b9050919050565b82818337600083830152505050565b60005b8381101561317a57808201518184015260208101905061315f565b83811115613189576000848401525b50505050565b600060028204905060018216806131a757607f821691505b602082108114156131bb576131ba6132f9565b5b50919050565b6131ca82613357565b810181811067ffffffffffffffff821117156131e9576131e8613328565b5b80604052505050565b60006131fd82613131565b91507fffffffffffffffffffffffffffffffffffffffffffffffffffffffffffffffff8214156132305761322f61326c565b5b600182019050919050565b600061324682613131565b915061325183613131565b9250826132615761326061329b565b5b828206905092915050565b7f4e487b7100000000000000000000000000000000000000000000000000000000600052601160045260246000fd5b7f4e487b7100000000000000000000000000000000000000000000000000000000600052601260045260246000fd5b7f4e487b7100000000000000000000000000000000000000000000000000000000600052602160045260246000fd5b7f4e487b7100000000000000000000000000000000000000000000000000000000600052602260045260246000fd5b7f4e487b7100000000000000000000000000000000000000000000000000000000600052604160045260246000fd5b6000601f19601f8301169050919050565b7f4552433732313a207472616e7366657220746f206e6f6e20455243373231526560008201527f63656976657220696d706c656d656e7465720000000000000000000000000000602082015250565b7f4f776e61626c653a206e6577206f776e657220697320746865207a65726f206160008201527f6464726573730000000000000000000000000000000000000000000000000000602082015250565b7f4552433732313a207472616e736665722066726f6d20696e636f72726563742060008201527f6f776e6572000000000000000000000000000000000000000000000000000000602082015250565b7f4552433732313a20746f6b656e20616c7265616479206d696e74656400000000600082015250565b7f4552433732313a207472616e7366657220746f20746865207a65726f2061646460008201527f7265737300000000000000000000000000000000000000000000000000000000602082015250565b7f4552433732313a20617070726f766520746f2063616c6c657200000000000000600082015250565b7f496e73756666696369656e7420746f6b656e732072656d61696e696e67000000600082015250565b7f4552433732313a2061646472657373207a65726f206973206e6f74206120766160008201527f6c6964206f776e65720000000000000000000000000000000000000000000000602082015250565b7f4e6f6e2d6578697374656e7420746f6b656e0000000000000000000000000000600082015250565b7f45786365656473206f6e6520746f6b656e207065722077616c6c657400000000600082015250565b7f4552433732313a20617070726f76652063616c6c6572206973206e6f7420746f60008201527f6b656e206f776e6572206e6f7220617070726f76656420666f7220616c6c0000602082015250565b7f4552433732313a206d696e7420746f20746865207a65726f2061646472657373600082015250565b7f2e6a736f6e000000000000000000000000000000000000000000000000000000600082015250565b7f4f776e61626c653a2063616c6c6572206973206e6f7420746865206f776e6572600082015250565b7f4552433732313a20696e76616c696420746f6b656e2049440000000000000000600082015250565b7f4552433732313a20617070726f76616c20746f2063757272656e74206f776e6560008201527f7200000000000000000000000000000000000000000000000000000000000000602082015250565b7f4552433732313a2063616c6c6572206973206e6f7420746f6b656e206f776e6560008201527f72206e6f7220617070726f766564000000000000000000000000000000000000602082015250565b7f5265656e7472616e637947756172643a207265656e7472616e742063616c6c00600082015250565b7f5075626c69632073616c65206973206e6f74206f70656e000000000000000000600082015250565b7f2f00000000000000000000000000000000000000000000000000000000000000600082015250565b600281106137dd576137dc6132ca565b5b50565b6137e9816130a2565b81146137f457600080fd5b50565b613800816130b4565b811461380b57600080fd5b50565b613817816130c0565b811461382257600080fd5b50565b61382e816130ec565b811461383957600080fd5b50565b61384581613131565b811461385057600080fd5b5056fea2646970667358221220e760532514f6916db688c50cba9494fba7b3b564908ced87a680eb79284399fc64736f6c63430008040033",
  "linkReferences": {},
  "deployedLinkReferences": {}
}