{
  "_format": "hh-sol-artifact-1",
  "contractName": "EcoSoul",
  "sourceName": "contracts/nft.sol",
  "abi": [
    {
      "inputs": [],
      "stateMutability": "nonpayable",
      "type": "constructor"
    },
    {
      "anonymous": false,
      "inputs": [
        {
          "indexed": true,
          "internalType": "address",
          "name": "owner",
          "type": "address"
        },
        {
          "indexed": true,
          "internalType": "address",
          "name": "approved",
          "type": "address"
        },
        {
          "indexed": true,
          "internalType": "uint256",
          "name": "tokenId",
          "type": "uint256"
        }
      ],
      "name": "Approval",
      "type": "event"
    },
    {
      "anonymous": false,
      "inputs": [
        {
          "indexed": true,
          "internalType": "address",
          "name": "owner",
          "type": "address"
        },
        {
          "indexed": true,
          "internalType": "address",
          "name": "operator",
          "type": "address"
        },
        {
          "indexed": false,
          "internalType": "bool",
          "name": "approved",
          "type": "bool"
        }
      ],
      "name": "ApprovalForAll",
      "type": "event"
    },
    {
      "anonymous": false,
      "inputs": [
        {
          "indexed": true,
          "internalType": "address",
          "name": "previousOwner",
          "type": "address"
        },
        {
          "indexed": true,
          "internalType": "address",
          "name": "newOwner",
          "type": "address"
        }
      ],
      "name": "OwnershipTransferred",
      "type": "event"
    },
    {
      "anonymous": false,
      "inputs": [
        {
          "indexed": true,
          "internalType": "address",
          "name": "from",
          "type": "address"
        },
        {
          "indexed": true,
          "internalType": "address",
          "name": "to",
          "type": "address"
        },
        {
          "indexed": true,
          "internalType": "uint256",
          "name": "tokenId",
          "type": "uint256"
        }
      ],
      "name": "Transfer",
      "type": "event"
    },
    {
      "inputs": [],
      "name": "MAX_TOTAL_SUPPLY",
      "outputs": [
        {
          "internalType": "uint256",
          "name": "",
          "type": "uint256"
        }
      ],
      "stateMutability": "view",
      "type": "function"
    },
    {
      "inputs": [],
      "name": "adminMerkleRoot",
      "outputs": [
        {
          "internalType": "bytes32",
          "name": "",
          "type": "bytes32"
        }
      ],
      "stateMutability": "view",
      "type": "function"
    },
    {
      "inputs": [
        {
          "internalType": "address",
          "name": "to",
          "type": "address"
        },
        {
          "internalType": "uint256",
          "name": "tokenId",
          "type": "uint256"
        }
      ],
      "name": "approve",
      "outputs": [],
      "stateMutability": "nonpayable",
      "type": "function"
    },
    {
      "inputs": [
        {
          "internalType": "address",
          "name": "owner",
          "type": "address"
        }
      ],
      "name": "balanceOf",
      "outputs": [
        {
          "internalType": "uint256",
          "name": "",
          "type": "uint256"
        }
      ],
      "stateMutability": "view",
      "type": "function"
    },
    {
      "inputs": [],
      "name": "contractURI",
      "outputs": [
        {
          "internalType": "string",
          "name": "",
          "type": "string"
        }
      ],
      "stateMutability": "view",
      "type": "function"
    },
    {
      "inputs": [
        {
          "internalType": "uint256",
          "name": "tokenId",
          "type": "uint256"
        }
      ],
      "name": "getApproved",
      "outputs": [
        {
          "internalType": "address",
          "name": "",
          "type": "address"
        }
      ],
      "stateMutability": "view",
      "type": "function"
    },
    {
      "inputs": [],
      "name": "getBaseURI",
      "outputs": [
        {
          "internalType": "string",
          "name": "",
          "type": "string"
        }
      ],
      "stateMutability": "view",
      "type": "function"
    },
    {
      "inputs": [],
      "name": "getContractURI",
      "outputs": [
        {
          "internalType": "string",
          "name": "",
          "type": "string"
        }
      ],
      "stateMutability": "view",
      "type": "function"
    },
    {
      "inputs": [],
      "name": "getLastTokenId",
      "outputs": [
        {
          "internalType": "uint256",
          "name": "",
          "type": "uint256"
        }
      ],
      "stateMutability": "view",
      "type": "function"
    },
    {
      "inputs": [
        {
          "internalType": "address",
          "name": "owner",
          "type": "address"
        },
        {
          "internalType": "address",
          "name": "operator",
          "type": "address"
        }
      ],
      "name": "isApprovedForAll",
      "outputs": [
        {
          "internalType": "bool",
          "name": "",
          "type": "bool"
        }
      ],
      "stateMutability": "view",
      "type": "function"
    },
    {
      "inputs": [],
      "name": "mint",
      "outputs": [],
      "stateMutability": "payable",
      "type": "function"
    },
    {
      "inputs": [],
      "name": "mintState",
      "outputs": [
        {
          "internalType": "enum EcoSoul.MintState",
          "name": "",
          "type": "uint8"
        }
      ],
      "stateMutability": "view",
      "type": "function"
    },
    {
      "inputs": [],
      "name": "name",
      "outputs": [
        {
          "internalType": "string",
          "name": "",
          "type": "string"
        }
      ],
      "stateMutability": "view",
      "type": "function"
    },
    {
      "inputs": [],
      "name": "numReservedTokens",
      "outputs": [
        {
          "internalType": "uint256",
          "name": "",
          "type": "uint256"
        }
      ],
      "stateMutability": "view",
      "type": "function"
    },
    {
      "inputs": [],
      "name": "owner",
      "outputs": [
        {
          "internalType": "address",
          "name": "",
          "type": "address"
        }
      ],
      "stateMutability": "view",
      "type": "function"
    },
    {
      "inputs": [
        {
          "internalType": "uint256",
          "name": "tokenId",
          "type": "uint256"
        }
      ],
      "name": "ownerOf",
      "outputs": [
        {
          "internalType": "address",
          "name": "",
          "type": "address"
        }
      ],
      "stateMutability": "view",
      "type": "function"
    },
    {
      "inputs": [],
      "name": "renounceOwnership",
      "outputs": [],
      "stateMutability": "nonpayable",
      "type": "function"
    },
    {
      "inputs": [
        {
          "internalType": "address",
          "name": "from",
          "type": "address"
        },
        {
          "internalType": "address",
          "name": "to",
          "type": "address"
        },
        {
          "internalType": "uint256",
          "name": "tokenId",
          "type": "uint256"
        }
      ],
      "name": "safeTransferFrom",
      "outputs": [],
      "stateMutability": "nonpayable",
      "type": "function"
    },
    {
      "inputs": [
        {
          "internalType": "address",
          "name": "from",
          "type": "address"
        },
        {
          "internalType": "address",
          "name": "to",
          "type": "address"
        },
        {
          "internalType": "uint256",
          "name": "tokenId",
          "type": "uint256"
        },
        {
          "internalType": "bytes",
          "name": "data",
          "type": "bytes"
        }
      ],
      "name": "safeTransferFrom",
      "outputs": [],
      "stateMutability": "nonpayable",
      "type": "function"
    },
    {
      "inputs": [
        {
          "internalType": "bytes32",
          "name": "merkleRoot",
          "type": "bytes32"
        }
      ],
      "name": "setAdminMerkleRoot",
      "outputs": [],
      "stateMutability": "nonpayable",
      "type": "function"
    },
    {
      "inputs": [
        {
          "internalType": "address",
          "name": "operator",
          "type": "address"
        },
        {
          "internalType": "bool",
          "name": "approved",
          "type": "bool"
        }
      ],
      "name": "setApprovalForAll",
      "outputs": [],
      "stateMutability": "nonpayable",
      "type": "function"
    },
    {
      "inputs": [
        {
          "internalType": "string",
          "name": "_baseURI",
          "type": "string"
        }
      ],
      "name": "setBaseURI",
      "outputs": [],
      "stateMutability": "nonpayable",
      "type": "function"
    },
    {
      "inputs": [
        {
          "internalType": "string",
          "name": "_collectionURI",
          "type": "string"
        }
      ],
      "name": "setCollectionURI",
      "outputs": [],
      "stateMutability": "nonpayable",
      "type": "function"
    },
    {
      "inputs": [],
      "name": "setMintActive",
      "outputs": [],
      "stateMutability": "nonpayable",
      "type": "function"
    },
    {
      "inputs": [],
      "name": "setMintInactive",
      "outputs": [],
      "stateMutability": "nonpayable",
      "type": "function"
    },
    {
      "inputs": [
        {
          "internalType": "bytes4",
          "name": "interfaceId",
          "type": "bytes4"
        }
      ],
      "name": "supportsInterface",
      "outputs": [
        {
          "internalType": "bool",
          "name": "",
          "type": "bool"
        }
      ],
      "stateMutability": "view",
      "type": "function"
    },
    {
      "inputs": [],
      "name": "symbol",
      "outputs": [
        {
          "internalType": "string",
          "name": "",
          "type": "string"
        }
      ],
      "stateMutability": "view",
      "type": "function"
    },
    {
      "inputs": [
        {
          "internalType": "uint256",
          "name": "tokenId",
          "type": "uint256"
        }
      ],
      "name": "tokenURI",
      "outputs": [
        {
          "internalType": "string",
          "name": "",
          "type": "string"
        }
      ],
      "stateMutability": "view",
      "type": "function"
    },
    {
      "inputs": [
        {
          "internalType": "address",
          "name": "from",
          "type": "address"
        },
        {
          "internalType": "address",
          "name": "to",
          "type": "address"
        },
        {
          "internalType": "uint256",
          "name": "tokenId",
          "type": "uint256"
        }
      ],
      "name": "transferFrom",
      "outputs": [],
      "stateMutability": "nonpayable",
      "type": "function"
    },
    {
      "inputs": [
        {
          "internalType": "address",
          "name": "newOwner",
          "type": "address"
        }
      ],
      "name": "transferOwnership",
      "outputs": [],
      "stateMutability": "nonpayable",
      "type": "function"
    },
    {
      "inputs": [],
      "name": "withdraw",
      "outputs": [],
      "stateMutability": "nonpayable",
      "type": "function"
    },
    {
      "inputs": [
        {
          "internalType": "contract IERC20",
          "name": "token",
          "type": "address"
        }
      ],
      "name": "withdrawTokens",
      "outputs": [],
      "stateMutability": "nonpayable",
      "type": "function"
    },
    {
      "stateMutability": "payable",
      "type": "receive"
    }
  ],
  "bytecode": "0x60806040526000600d60006101000a81548160ff0219169083600181111562000051577f4e487b7100000000000000000000000000000000000000000000000000000000600052602160045260246000fd5b02179055503480156200006357600080fd5b506040518060400160405280600781526020017f45636f536f756c000000000000000000000000000000000000000000000000008152506040518060400160405280600781526020017f45434f534f554c000000000000000000000000000000000000000000000000008152508160009080519060200190620000e892919062000200565b5080600190805190602001906200010192919062000200565b50505062000124620001186200013260201b60201c565b6200013a60201b60201c565b600160078190555062000315565b600033905090565b6000600660009054906101000a900473ffffffffffffffffffffffffffffffffffffffff16905081600660006101000a81548173ffffffffffffffffffffffffffffffffffffffff021916908373ffffffffffffffffffffffffffffffffffffffff1602179055508173ffffffffffffffffffffffffffffffffffffffff168173ffffffffffffffffffffffffffffffffffffffff167f8be0079c531659141344cd1fd0a4f28419497f9722a3daafe3b4186f6b6457e060405160405180910390a35050565b8280546200020e90620002b0565b90600052602060002090601f0160209004810192826200023257600085556200027e565b82601f106200024d57805160ff19168380011785556200027e565b828001600101855582156200027e579182015b828111156200027d57825182559160200191906001019062000260565b5b5090506200028d919062000291565b5090565b5b80821115620002ac57600081600090555060010162000292565b5090565b60006002820490506001821680620002c957607f821691505b60208210811415620002e057620002df620002e6565b5b50919050565b7f4e487b7100000000000000000000000000000000000000000000000000000000600052602260045260246000fd5b61396280620003256000396000f3fe6080604052600436106101e75760003560e01c806358cd080c11610102578063a22cb46511610095578063c87b56dd11610064578063c87b56dd1461066c578063e8a3d485146106a9578063e985e9c5146106d4578063f2fde38b14610711576101ee565b8063a22cb465146105c4578063b58b7992146105ed578063b88d4fde14610618578063c051e38a14610641576101ee565b8063715018a6116100d1578063715018a61461052c57806383c4c00d146105435780638da5cb5b1461056e57806395d89b4114610599576101ee565b806358cd080c146104705780636352211e1461048757806370a08231146104c4578063714c539814610501576101ee565b80632f2fe7211161017a5780633ccfd60b116101495780633ccfd60b146103de57806342842e0e146103f557806349df728c1461041e57806355f804b314610447576101ee565b80632f2fe7211461034857806333039d3d14610371578063358338d51461039c57806337929eb4146103b3576101ee565b806311e3dbca116101b657806311e3dbca146102c15780631249c58b146102ec57806323b872dd146102f65780632639f4601461031f576101ee565b806301ffc9a7146101f357806306fdde0314610230578063081812fc1461025b578063095ea7b314610298576101ee565b366101ee57005b600080fd5b3480156101ff57600080fd5b5061021a60048036038101906102159190612722565b61073a565b6040516102279190612cf5565b60405180910390f35b34801561023c57600080fd5b5061024561081c565b6040516102529190612d46565b60405180910390f35b34801561026757600080fd5b50610282600480360381019061027d91906127de565b6108ae565b60405161028f9190612c65565b60405180910390f35b3480156102a457600080fd5b506102bf60048036038101906102ba9190612694565b6108f4565b005b3480156102cd57600080fd5b506102d6610a0c565b6040516102e39190612fa8565b60405180910390f35b6102f4610a12565b005b34801561030257600080fd5b5061031d6004803603810190610318919061258e565b610bd5565b005b34801561032b57600080fd5b506103466004803603810190610341919061279d565b610c35565b005b34801561035457600080fd5b5061036f600480360381019061036a91906126f9565b610c57565b005b34801561037d57600080fd5b50610386610c69565b6040516103939190612fa8565b60405180910390f35b3480156103a857600080fd5b506103b1610c6f565b005b3480156103bf57600080fd5b506103c8610cca565b6040516103d59190612d46565b60405180910390f35b3480156103ea57600080fd5b506103f3610d5c565b005b34801561040157600080fd5b5061041c6004803603810190610417919061258e565b610db3565b005b34801561042a57600080fd5b5061044560048036038101906104409190612774565b610dd3565b005b34801561045357600080fd5b5061046e6004803603810190610469919061279d565b610efa565b005b34801561047c57600080fd5b50610485610f1c565b005b34801561049357600080fd5b506104ae60048036038101906104a991906127de565b610f77565b6040516104bb9190612c65565b60405180910390f35b3480156104d057600080fd5b506104eb60048036038101906104e69190612529565b611029565b6040516104f89190612fa8565b60405180910390f35b34801561050d57600080fd5b506105166110e1565b6040516105239190612d46565b60405180910390f35b34801561053857600080fd5b50610541611173565b005b34801561054f57600080fd5b50610558611187565b6040516105659190612fa8565b60405180910390f35b34801561057a57600080fd5b50610583611198565b6040516105909190612c65565b60405180910390f35b3480156105a557600080fd5b506105ae6111c2565b6040516105bb9190612d46565b60405180910390f35b3480156105d057600080fd5b506105eb60048036038101906105e69190612658565b611254565b005b3480156105f957600080fd5b5061060261126a565b60405161060f9190612d10565b60405180910390f35b34801561062457600080fd5b5061063f600480360381019061063a91906125dd565b611270565b005b34801561064d57600080fd5b506106566112d2565b6040516106639190612d2b565b60405180910390f35b34801561067857600080fd5b50610693600480360381019061068e91906127de565b6112e5565b6040516106a09190612d46565b60405180910390f35b3480156106b557600080fd5b506106be611361565b6040516106cb9190612d46565b60405180910390f35b3480156106e057600080fd5b506106fb60048036038101906106f69190612552565b6113f3565b6040516107089190612cf5565b60405180910390f35b34801561071d57600080fd5b5061073860048036038101906107339190612529565b611487565b005b60007f80ac58cd000000000000000000000000000000000000000000000000000000007bffffffffffffffffffffffffffffffffffffffffffffffffffffffff1916827bffffffffffffffffffffffffffffffffffffffffffffffffffffffff1916148061080557507f5b5e139f000000000000000000000000000000000000000000000000000000007bffffffffffffffffffffffffffffffffffffffffffffffffffffffff1916827bffffffffffffffffffffffffffffffffffffffffffffffffffffffff1916145b8061081557506108148261150b565b5b9050919050565b60606000805461082b90613254565b80601f016020809104026020016040519081016040528092919081815260200182805461085790613254565b80156108a45780601f10610879576101008083540402835291602001916108a4565b820191906000526020600020905b81548152906001019060200180831161088757829003601f168201915b5050505050905090565b60006108b982611575565b6004600083815260200190815260200160002060009054906101000a900473ffffffffffffffffffffffffffffffffffffffff169050919050565b60006108ff82610f77565b90508073ffffffffffffffffffffffffffffffffffffffff168373ffffffffffffffffffffffffffffffffffffffff161415610970576040517f08c379a000000000000000000000000000000000000000000000000000000000815260040161096790612f48565b60405180910390fd5b8073ffffffffffffffffffffffffffffffffffffffff1661098f6115c0565b73ffffffffffffffffffffffffffffffffffffffff1614806109be57506109bd816109b86115c0565b6113f3565b5b6109fd576040517f08c379a00000000000000000000000000000000000000000000000000000000081526004016109f490612ea8565b60405180910390fd5b610a0783836115c8565b505050565b600b5481565b60026007541415610a58576040517f08c379a0000000000000000000000000000000000000000000000000000000008152600401610a4f90612f88565b60405180910390fd5b6002600781905550600180811115610a99577f4e487b7100000000000000000000000000000000000000000000000000000000600052602160045260246000fd5b600d60009054906101000a900460ff166001811115610ae1577f4e487b7100000000000000000000000000000000000000000000000000000000600052602160045260246000fd5b14610b21576040517f08c379a0000000000000000000000000000000000000000000000000000000008152600401610b1890612d68565b60405180910390fd5b611388610b2e6008611681565b1115610b6f576040517f08c379a0000000000000000000000000000000000000000000000000000000008152600401610b6690612e48565b60405180910390fd5b6001610b7a33611029565b10610bba576040517f08c379a0000000000000000000000000000000000000000000000000000000008152600401610bb190612f08565b60405180910390fd5b610bcb33610bc661168f565b6116aa565b6001600781905550565b610be6610be06115c0565b826116c8565b610c25576040517f08c379a0000000000000000000000000000000000000000000000000000000008152600401610c1c90612f68565b60405180910390fd5b610c3083838361175d565b505050565b610c3d6119c4565b80600a9080519060200190610c539291906122f9565b5050565b610c5f6119c4565b80600c8190555050565b61138881565b610c776119c4565b6000600d60006101000a81548160ff02191690836001811115610cc3577f4e487b7100000000000000000000000000000000000000000000000000000000600052602160045260246000fd5b0217905550565b6060600a8054610cd990613254565b80601f0160208091040260200160405190810160405280929190818152602001828054610d0590613254565b8015610d525780601f10610d2757610100808354040283529160200191610d52565b820191906000526020600020905b815481529060010190602001808311610d3557829003601f168201915b5050505050905090565b610d646119c4565b60004790503373ffffffffffffffffffffffffffffffffffffffff166108fc829081150290604051600060405180830381858888f19350505050158015610daf573d6000803e3d6000fd5b5050565b610dce83838360405180602001604052806000815250611270565b505050565b610ddb6119c4565b60008173ffffffffffffffffffffffffffffffffffffffff166370a08231306040518263ffffffff1660e01b8152600401610e169190612c65565b60206040518083038186803b158015610e2e57600080fd5b505afa158015610e42573d6000803e3d6000fd5b505050506040513d601f19601f82011682018060405250810190610e669190612807565b90508173ffffffffffffffffffffffffffffffffffffffff1663a9059cbb33836040518363ffffffff1660e01b8152600401610ea3929190612ccc565b602060405180830381600087803b158015610ebd57600080fd5b505af1158015610ed1573d6000803e3d6000fd5b505050506040513d601f19601f82011682018060405250810190610ef591906126d0565b505050565b610f026119c4565b8060099080519060200190610f189291906122f9565b5050565b610f246119c4565b6001600d60006101000a81548160ff02191690836001811115610f70577f4e487b7100000000000000000000000000000000000000000000000000000000600052602160045260246000fd5b0217905550565b6000806002600084815260200190815260200160002060009054906101000a900473ffffffffffffffffffffffffffffffffffffffff169050600073ffffffffffffffffffffffffffffffffffffffff168173ffffffffffffffffffffffffffffffffffffffff161415611020576040517f08c379a000000000000000000000000000000000000000000000000000000000815260040161101790612f28565b60405180910390fd5b80915050919050565b60008073ffffffffffffffffffffffffffffffffffffffff168273ffffffffffffffffffffffffffffffffffffffff16141561109a576040517f08c379a000000000000000000000000000000000000000000000000000000000815260040161109190612e68565b60405180910390fd5b600360008373ffffffffffffffffffffffffffffffffffffffff1673ffffffffffffffffffffffffffffffffffffffff168152602001908152602001600020549050919050565b6060600980546110f090613254565b80601f016020809104026020016040519081016040528092919081815260200182805461111c90613254565b80156111695780601f1061113e57610100808354040283529160200191611169565b820191906000526020600020905b81548152906001019060200180831161114c57829003601f168201915b5050505050905090565b61117b6119c4565b6111856000611a42565b565b60006111936008611681565b905090565b6000600660009054906101000a900473ffffffffffffffffffffffffffffffffffffffff16905090565b6060600180546111d190613254565b80601f01602080910402602001604051908101604052809291908181526020018280546111fd90613254565b801561124a5780601f1061121f5761010080835404028352916020019161124a565b820191906000526020600020905b81548152906001019060200180831161122d57829003601f168201915b5050505050905090565b61126661125f6115c0565b8383611b08565b5050565b600c5481565b61128161127b6115c0565b836116c8565b6112c0576040517f08c379a00000000000000000000000000000000000000000000000000000000081526004016112b790612f68565b60405180910390fd5b6112cc84848484611c75565b50505050565b600d60009054906101000a900460ff1681565b60606112f082611cd1565b61132f576040517f08c379a000000000000000000000000000000000000000000000000000000000815260040161132690612e88565b60405180910390fd5b600961133a83611d3d565b60405160200161134b929190612c36565b6040516020818303038152906040529050919050565b6060600a805461137090613254565b80601f016020809104026020016040519081016040528092919081815260200182805461139c90613254565b80156113e95780601f106113be576101008083540402835291602001916113e9565b820191906000526020600020905b8154815290600101906020018083116113cc57829003601f168201915b5050505050905090565b6000600560008473ffffffffffffffffffffffffffffffffffffffff1673ffffffffffffffffffffffffffffffffffffffff16815260200190815260200160002060008373ffffffffffffffffffffffffffffffffffffffff1673ffffffffffffffffffffffffffffffffffffffff16815260200190815260200160002060009054906101000a900460ff16905092915050565b61148f6119c4565b600073ffffffffffffffffffffffffffffffffffffffff168173ffffffffffffffffffffffffffffffffffffffff1614156114ff576040517f08c379a00000000000000000000000000000000000000000000000000000000081526004016114f690612da8565b60405180910390fd5b61150881611a42565b50565b60007f01ffc9a7000000000000000000000000000000000000000000000000000000007bffffffffffffffffffffffffffffffffffffffffffffffffffffffff1916827bffffffffffffffffffffffffffffffffffffffffffffffffffffffff1916149050919050565b61157e81611cd1565b6115bd576040517f08c379a00000000000000000000000000000000000000000000000000000000081526004016115b490612f28565b60405180910390fd5b50565b600033905090565b816004600083815260200190815260200160002060006101000a81548173ffffffffffffffffffffffffffffffffffffffff021916908373ffffffffffffffffffffffffffffffffffffffff160217905550808273ffffffffffffffffffffffffffffffffffffffff1661163b83610f77565b73ffffffffffffffffffffffffffffffffffffffff167f8c5be1e5ebec7d5bd14f71427d1e84f3dd0314c0f7b2291e5b200ac8c7c3b92560405160405180910390a45050565b600081600001549050919050565b600061169b6008611eea565b6116a56008611681565b905090565b6116c4828260405180602001604052806000815250611f00565b5050565b6000806116d483610f77565b90508073ffffffffffffffffffffffffffffffffffffffff168473ffffffffffffffffffffffffffffffffffffffff161480611716575061171581856113f3565b5b8061175457508373ffffffffffffffffffffffffffffffffffffffff1661173c846108ae565b73ffffffffffffffffffffffffffffffffffffffff16145b91505092915050565b8273ffffffffffffffffffffffffffffffffffffffff1661177d82610f77565b73ffffffffffffffffffffffffffffffffffffffff16146117d3576040517f08c379a00000000000000000000000000000000000000000000000000000000081526004016117ca90612dc8565b60405180910390fd5b600073ffffffffffffffffffffffffffffffffffffffff168273ffffffffffffffffffffffffffffffffffffffff161415611843576040517f08c379a000000000000000000000000000000000000000000000000000000000815260040161183a90612e08565b60405180910390fd5b61184e838383611f5b565b6118596000826115c8565b6001600360008573ffffffffffffffffffffffffffffffffffffffff1673ffffffffffffffffffffffffffffffffffffffff16815260200190815260200160002060008282546118a99190613129565b925050819055506001600360008473ffffffffffffffffffffffffffffffffffffffff1673ffffffffffffffffffffffffffffffffffffffff168152602001908152602001600020600082825461190091906130a2565b92505081905550816002600083815260200190815260200160002060006101000a81548173ffffffffffffffffffffffffffffffffffffffff021916908373ffffffffffffffffffffffffffffffffffffffff160217905550808273ffffffffffffffffffffffffffffffffffffffff168473ffffffffffffffffffffffffffffffffffffffff167fddf252ad1be2c89b69c2b068fc378daa952ba7f163c4a11628f55a4df523b3ef60405160405180910390a46119bf838383611f60565b505050565b6119cc6115c0565b73ffffffffffffffffffffffffffffffffffffffff166119ea611198565b73ffffffffffffffffffffffffffffffffffffffff1614611a40576040517f08c379a0000000000000000000000000000000000000000000000000000000008152600401611a3790612ee8565b60405180910390fd5b565b6000600660009054906101000a900473ffffffffffffffffffffffffffffffffffffffff16905081600660006101000a81548173ffffffffffffffffffffffffffffffffffffffff021916908373ffffffffffffffffffffffffffffffffffffffff1602179055508173ffffffffffffffffffffffffffffffffffffffff168173ffffffffffffffffffffffffffffffffffffffff167f8be0079c531659141344cd1fd0a4f28419497f9722a3daafe3b4186f6b6457e060405160405180910390a35050565b8173ffffffffffffffffffffffffffffffffffffffff168373ffffffffffffffffffffffffffffffffffffffff161415611b77576040517f08c379a0000000000000000000000000000000000000000000000000000000008152600401611b6e90612e28565b60405180910390fd5b80600560008573ffffffffffffffffffffffffffffffffffffffff1673ffffffffffffffffffffffffffffffffffffffff16815260200190815260200160002060008473ffffffffffffffffffffffffffffffffffffffff1673ffffffffffffffffffffffffffffffffffffffff16815260200190815260200160002060006101000a81548160ff0219169083151502179055508173ffffffffffffffffffffffffffffffffffffffff168373ffffffffffffffffffffffffffffffffffffffff167f17307eab39ab6107e8899845ad3d59bd9653f200f220920489ca2b5937696c3183604051611c689190612cf5565b60405180910390a3505050565b611c8084848461175d565b611c8c84848484611f65565b611ccb576040517f08c379a0000000000000000000000000000000000000000000000000000000008152600401611cc290612d88565b60405180910390fd5b50505050565b60008073ffffffffffffffffffffffffffffffffffffffff166002600084815260200190815260200160002060009054906101000a900473ffffffffffffffffffffffffffffffffffffffff1673ffffffffffffffffffffffffffffffffffffffff1614159050919050565b60606000821415611d85576040518060400160405280600181526020017f30000000000000000000000000000000000000000000000000000000000000008152509050611ee5565b600082905060005b60008214611db7578080611da0906132b7565b915050600a82611db091906130f8565b9150611d8d565b60008167ffffffffffffffff811115611df9577f4e487b7100000000000000000000000000000000000000000000000000000000600052604160045260246000fd5b6040519080825280601f01601f191660200182016040528015611e2b5781602001600182028036833780820191505090505b5090505b60008514611ede57600182611e449190613129565b9150600a85611e539190613300565b6030611e5f91906130a2565b60f81b818381518110611e9b577f4e487b7100000000000000000000000000000000000000000000000000000000600052603260045260246000fd5b60200101907effffffffffffffffffffffffffffffffffffffffffffffffffffffffffffff1916908160001a905350600a85611ed791906130f8565b9450611e2f565b8093505050505b919050565b6001816000016000828254019250508190555050565b611f0a83836120fc565b611f176000848484611f65565b611f56576040517f08c379a0000000000000000000000000000000000000000000000000000000008152600401611f4d90612d88565b60405180910390fd5b505050565b505050565b505050565b6000611f868473ffffffffffffffffffffffffffffffffffffffff166122d6565b156120ef578373ffffffffffffffffffffffffffffffffffffffff1663150b7a02611faf6115c0565b8786866040518563ffffffff1660e01b8152600401611fd19493929190612c80565b602060405180830381600087803b158015611feb57600080fd5b505af192505050801561201c57506040513d601f19601f82011682018060405250810190612019919061274b565b60015b61209f573d806000811461204c576040519150601f19603f3d011682016040523d82523d6000602084013e612051565b606091505b50600081511415612097576040517f08c379a000000000000000000000000000000000000000000000000000000000815260040161208e90612d88565b60405180910390fd5b805181602001fd5b63150b7a0260e01b7bffffffffffffffffffffffffffffffffffffffffffffffffffffffff1916817bffffffffffffffffffffffffffffffffffffffffffffffffffffffff1916149150506120f4565b600190505b949350505050565b600073ffffffffffffffffffffffffffffffffffffffff168273ffffffffffffffffffffffffffffffffffffffff16141561216c576040517f08c379a000000000000000000000000000000000000000000000000000000000815260040161216390612ec8565b60405180910390fd5b61217581611cd1565b156121b5576040517f08c379a00000000000000000000000000000000000000000000000000000000081526004016121ac90612de8565b60405180910390fd5b6121c160008383611f5b565b6001600360008473ffffffffffffffffffffffffffffffffffffffff1673ffffffffffffffffffffffffffffffffffffffff168152602001908152602001600020600082825461221191906130a2565b92505081905550816002600083815260200190815260200160002060006101000a81548173ffffffffffffffffffffffffffffffffffffffff021916908373ffffffffffffffffffffffffffffffffffffffff160217905550808273ffffffffffffffffffffffffffffffffffffffff16600073ffffffffffffffffffffffffffffffffffffffff167fddf252ad1be2c89b69c2b068fc378daa952ba7f163c4a11628f55a4df523b3ef60405160405180910390a46122d260008383611f60565b5050565b6000808273ffffffffffffffffffffffffffffffffffffffff163b119050919050565b82805461230590613254565b90600052602060002090601f016020900481019282612327576000855561236e565b82601f1061234057805160ff191683800117855561236e565b8280016001018555821561236e579182015b8281111561236d578251825591602001919060010190612352565b5b50905061237b919061237f565b5090565b5b80821115612398576000816000905550600101612380565b5090565b60006123af6123aa84612fe8565b612fc3565b9050828152602081018484840111156123c757600080fd5b6123d2848285613212565b509392505050565b60006123ed6123e884613019565b612fc3565b90508281526020810184848401111561240557600080fd5b612410848285613212565b509392505050565b600081359050612427816138a2565b92915050565b60008135905061243c816138b9565b92915050565b600081519050612451816138b9565b92915050565b600081359050612466816138d0565b92915050565b60008135905061247b816138e7565b92915050565b600081519050612490816138e7565b92915050565b600082601f8301126124a757600080fd5b81356124b784826020860161239c565b91505092915050565b6000813590506124cf816138fe565b92915050565b600082601f8301126124e657600080fd5b81356124f68482602086016123da565b91505092915050565b60008135905061250e81613915565b92915050565b60008151905061252381613915565b92915050565b60006020828403121561253b57600080fd5b600061254984828501612418565b91505092915050565b6000806040838503121561256557600080fd5b600061257385828601612418565b925050602061258485828601612418565b9150509250929050565b6000806000606084860312156125a357600080fd5b60006125b186828701612418565b93505060206125c286828701612418565b92505060406125d3868287016124ff565b9150509250925092565b600080600080608085870312156125f357600080fd5b600061260187828801612418565b945050602061261287828801612418565b9350506040612623878288016124ff565b925050606085013567ffffffffffffffff81111561264057600080fd5b61264c87828801612496565b91505092959194509250565b6000806040838503121561266b57600080fd5b600061267985828601612418565b925050602061268a8582860161242d565b9150509250929050565b600080604083850312156126a757600080fd5b60006126b585828601612418565b92505060206126c6858286016124ff565b9150509250929050565b6000602082840312156126e257600080fd5b60006126f084828501612442565b91505092915050565b60006020828403121561270b57600080fd5b600061271984828501612457565b91505092915050565b60006020828403121561273457600080fd5b60006127428482850161246c565b91505092915050565b60006020828403121561275d57600080fd5b600061276b84828501612481565b91505092915050565b60006020828403121561278657600080fd5b6000612794848285016124c0565b91505092915050565b6000602082840312156127af57600080fd5b600082013567ffffffffffffffff8111156127c957600080fd5b6127d5848285016124d5565b91505092915050565b6000602082840312156127f057600080fd5b60006127fe848285016124ff565b91505092915050565b60006020828403121561281957600080fd5b600061282784828501612514565b91505092915050565b6128398161315d565b82525050565b6128488161316f565b82525050565b6128578161317b565b82525050565b60006128688261305f565b6128728185613075565b9350612882818560208601613221565b61288b8161341c565b840191505092915050565b61289f81613200565b82525050565b60006128b08261306a565b6128ba8185613086565b93506128ca818560208601613221565b6128d38161341c565b840191505092915050565b60006128e98261306a565b6128f38185613097565b9350612903818560208601613221565b80840191505092915050565b6000815461291c81613254565b6129268186613097565b94506001821660008114612941576001811461295257612985565b60ff19831686528186019350612985565b61295b8561304a565b60005b8381101561297d5781548189015260018201915060208101905061295e565b838801955050505b50505092915050565b600061299b601083613086565b91506129a68261342d565b602082019050919050565b60006129be603283613086565b91506129c982613456565b604082019050919050565b60006129e1602683613086565b91506129ec826134a5565b604082019050919050565b6000612a04602583613086565b9150612a0f826134f4565b604082019050919050565b6000612a27601c83613086565b9150612a3282613543565b602082019050919050565b6000612a4a602483613086565b9150612a558261356c565b604082019050919050565b6000612a6d601983613086565b9150612a78826135bb565b602082019050919050565b6000612a90601d83613086565b9150612a9b826135e4565b602082019050919050565b6000612ab3602983613086565b9150612abe8261360d565b604082019050919050565b6000612ad6601283613086565b9150612ae18261365c565b602082019050919050565b6000612af9603e83613086565b9150612b0482613685565b604082019050919050565b6000612b1c602083613086565b9150612b27826136d4565b602082019050919050565b6000612b3f602083613086565b9150612b4a826136fd565b602082019050919050565b6000612b62602a83613086565b9150612b6d82613726565b604082019050919050565b6000612b85601883613086565b9150612b9082613775565b602082019050919050565b6000612ba8602183613086565b9150612bb38261379e565b604082019050919050565b6000612bcb602e83613086565b9150612bd6826137ed565b604082019050919050565b6000612bee601f83613086565b9150612bf98261383c565b602082019050919050565b6000612c11600183613097565b9150612c1c82613865565b600182019050919050565b612c30816131f6565b82525050565b6000612c42828561290f565b9150612c4d82612c04565b9150612c5982846128de565b91508190509392505050565b6000602082019050612c7a6000830184612830565b92915050565b6000608082019050612c956000830187612830565b612ca26020830186612830565b612caf6040830185612c27565b8181036060830152612cc1818461285d565b905095945050505050565b6000604082019050612ce16000830185612830565b612cee6020830184612c27565b9392505050565b6000602082019050612d0a600083018461283f565b92915050565b6000602082019050612d25600083018461284e565b92915050565b6000602082019050612d406000830184612896565b92915050565b60006020820190508181036000830152612d6081846128a5565b905092915050565b60006020820190508181036000830152612d818161298e565b9050919050565b60006020820190508181036000830152612da1816129b1565b9050919050565b60006020820190508181036000830152612dc1816129d4565b9050919050565b60006020820190508181036000830152612de1816129f7565b9050919050565b60006020820190508181036000830152612e0181612a1a565b9050919050565b60006020820190508181036000830152612e2181612a3d565b9050919050565b60006020820190508181036000830152612e4181612a60565b9050919050565b60006020820190508181036000830152612e6181612a83565b9050919050565b60006020820190508181036000830152612e8181612aa6565b9050919050565b60006020820190508181036000830152612ea181612ac9565b9050919050565b60006020820190508181036000830152612ec181612aec565b9050919050565b60006020820190508181036000830152612ee181612b0f565b9050919050565b60006020820190508181036000830152612f0181612b32565b9050919050565b60006020820190508181036000830152612f2181612b55565b9050919050565b60006020820190508181036000830152612f4181612b78565b9050919050565b60006020820190508181036000830152612f6181612b9b565b9050919050565b60006020820190508181036000830152612f8181612bbe565b9050919050565b60006020820190508181036000830152612fa181612be1565b9050919050565b6000602082019050612fbd6000830184612c27565b92915050565b6000612fcd612fde565b9050612fd98282613286565b919050565b6000604051905090565b600067ffffffffffffffff821115613003576130026133ed565b5b61300c8261341c565b9050602081019050919050565b600067ffffffffffffffff821115613034576130336133ed565b5b61303d8261341c565b9050602081019050919050565b60008190508160005260206000209050919050565b600081519050919050565b600081519050919050565b600082825260208201905092915050565b600082825260208201905092915050565b600081905092915050565b60006130ad826131f6565b91506130b8836131f6565b9250827fffffffffffffffffffffffffffffffffffffffffffffffffffffffffffffffff038211156130ed576130ec613331565b5b828201905092915050565b6000613103826131f6565b915061310e836131f6565b92508261311e5761311d613360565b5b828204905092915050565b6000613134826131f6565b915061313f836131f6565b92508282101561315257613151613331565b5b828203905092915050565b6000613168826131d6565b9050919050565b60008115159050919050565b6000819050919050565b60007fffffffff0000000000000000000000000000000000000000000000000000000082169050919050565b60006131bc8261315d565b9050919050565b60008190506131d18261388e565b919050565b600073ffffffffffffffffffffffffffffffffffffffff82169050919050565b6000819050919050565b600061320b826131c3565b9050919050565b82818337600083830152505050565b60005b8381101561323f578082015181840152602081019050613224565b8381111561324e576000848401525b50505050565b6000600282049050600182168061326c57607f821691505b602082108114156132805761327f6133be565b5b50919050565b61328f8261341c565b810181811067ffffffffffffffff821117156132ae576132ad6133ed565b5b80604052505050565b60006132c2826131f6565b91507fffffffffffffffffffffffffffffffffffffffffffffffffffffffffffffffff8214156132f5576132f4613331565b5b600182019050919050565b600061330b826131f6565b9150613316836131f6565b92508261332657613325613360565b5b828206905092915050565b7f4e487b7100000000000000000000000000000000000000000000000000000000600052601160045260246000fd5b7f4e487b7100000000000000000000000000000000000000000000000000000000600052601260045260246000fd5b7f4e487b7100000000000000000000000000000000000000000000000000000000600052602160045260246000fd5b7f4e487b7100000000000000000000000000000000000000000000000000000000600052602260045260246000fd5b7f4e487b7100000000000000000000000000000000000000000000000000000000600052604160045260246000fd5b6000601f19601f8301169050919050565b7f4d696e74206973206e6f74206f70656e00000000000000000000000000000000600082015250565b7f4552433732313a207472616e7366657220746f206e6f6e20455243373231526560008201527f63656976657220696d706c656d656e7465720000000000000000000000000000602082015250565b7f4f776e61626c653a206e6577206f776e657220697320746865207a65726f206160008201527f6464726573730000000000000000000000000000000000000000000000000000602082015250565b7f4552433732313a207472616e736665722066726f6d20696e636f72726563742060008201527f6f776e6572000000000000000000000000000000000000000000000000000000602082015250565b7f4552433732313a20746f6b656e20616c7265616479206d696e74656400000000600082015250565b7f4552433732313a207472616e7366657220746f20746865207a65726f2061646460008201527f7265737300000000000000000000000000000000000000000000000000000000602082015250565b7f4552433732313a20617070726f766520746f2063616c6c657200000000000000600082015250565b7f496e73756666696369656e7420746f6b656e732072656d61696e696e67000000600082015250565b7f4552433732313a2061646472657373207a65726f206973206e6f74206120766160008201527f6c6964206f776e65720000000000000000000000000000000000000000000000602082015250565b7f4e6f6e2d6578697374656e7420746f6b656e0000000000000000000000000000600082015250565b7f4552433732313a20617070726f76652063616c6c6572206973206e6f7420746f60008201527f6b656e206f776e6572206e6f7220617070726f76656420666f7220616c6c0000602082015250565b7f4552433732313a206d696e7420746f20746865207a65726f2061646472657373600082015250565b7f4f776e61626c653a2063616c6c6572206973206e6f7420746865206f776e6572600082015250565b7f43616e6e6f74206d696e74206d6f7265207468616e206f6e6520746f6b656e2060008201527f7065722077616c6c657400000000000000000000000000000000000000000000602082015250565b7f4552433732313a20696e76616c696420746f6b656e2049440000000000000000600082015250565b7f4552433732313a20617070726f76616c20746f2063757272656e74206f776e6560008201527f7200000000000000000000000000000000000000000000000000000000000000602082015250565b7f4552433732313a2063616c6c6572206973206e6f7420746f6b656e206f776e6560008201527f72206e6f7220617070726f766564000000000000000000000000000000000000602082015250565b7f5265656e7472616e637947756172643a207265656e7472616e742063616c6c00600082015250565b7f2f00000000000000000000000000000000000000000000000000000000000000600082015250565b6002811061389f5761389e61338f565b5b50565b6138ab8161315d565b81146138b657600080fd5b50565b6138c28161316f565b81146138cd57600080fd5b50565b6138d98161317b565b81146138e457600080fd5b50565b6138f081613185565b81146138fb57600080fd5b50565b613907816131b1565b811461391257600080fd5b50565b61391e816131f6565b811461392957600080fd5b5056fea2646970667358221220a8cc9057e3e891a2aaee281797b62ee2b0d748dd8eea245bd0133a222cc49f0e64736f6c63430008040033",
  "linkReferences": {},
  "deployedLinkReferences": {}
}