{
  "_format": "hh-sol-artifact-1",
  "contractName": "EcoSoul",
  "sourceName": "contracts/nft.sol",
  "abi": [
    {
      "inputs": [],
      "stateMutability": "nonpayable",
      "type": "constructor"
    },
    {
      "anonymous": false,
      "inputs": [
        {
          "indexed": true,
          "internalType": "address",
          "name": "owner",
          "type": "address"
        },
        {
          "indexed": true,
          "internalType": "address",
          "name": "approved",
          "type": "address"
        },
        {
          "indexed": true,
          "internalType": "uint256",
          "name": "tokenId",
          "type": "uint256"
        }
      ],
      "name": "Approval",
      "type": "event"
    },
    {
      "anonymous": false,
      "inputs": [
        {
          "indexed": true,
          "internalType": "address",
          "name": "owner",
          "type": "address"
        },
        {
          "indexed": true,
          "internalType": "address",
          "name": "operator",
          "type": "address"
        },
        {
          "indexed": false,
          "internalType": "bool",
          "name": "approved",
          "type": "bool"
        }
      ],
      "name": "ApprovalForAll",
      "type": "event"
    },
    {
      "anonymous": false,
      "inputs": [
        {
          "indexed": true,
          "internalType": "address",
          "name": "previousOwner",
          "type": "address"
        },
        {
          "indexed": true,
          "internalType": "address",
          "name": "newOwner",
          "type": "address"
        }
      ],
      "name": "OwnershipTransferred",
      "type": "event"
    },
    {
      "anonymous": false,
      "inputs": [
        {
          "indexed": true,
          "internalType": "address",
          "name": "from",
          "type": "address"
        },
        {
          "indexed": true,
          "internalType": "address",
          "name": "to",
          "type": "address"
        },
        {
          "indexed": true,
          "internalType": "uint256",
          "name": "tokenId",
          "type": "uint256"
        }
      ],
      "name": "Transfer",
      "type": "event"
    },
    {
      "inputs": [],
      "name": "MAX_TOTAL_SUPPLY",
      "outputs": [
        {
          "internalType": "uint256",
          "name": "",
          "type": "uint256"
        }
      ],
      "stateMutability": "view",
      "type": "function"
    },
    {
      "inputs": [],
      "name": "adminMerkleRoot",
      "outputs": [
        {
          "internalType": "bytes32",
          "name": "",
          "type": "bytes32"
        }
      ],
      "stateMutability": "view",
      "type": "function"
    },
    {
      "inputs": [
        {
          "internalType": "address",
          "name": "to",
          "type": "address"
        },
        {
          "internalType": "uint256",
          "name": "tokenId",
          "type": "uint256"
        }
      ],
      "name": "approve",
      "outputs": [],
      "stateMutability": "nonpayable",
      "type": "function"
    },
    {
      "inputs": [
        {
          "internalType": "address",
          "name": "owner",
          "type": "address"
        }
      ],
      "name": "balanceOf",
      "outputs": [
        {
          "internalType": "uint256",
          "name": "",
          "type": "uint256"
        }
      ],
      "stateMutability": "view",
      "type": "function"
    },
    {
      "inputs": [],
      "name": "contractURI",
      "outputs": [
        {
          "internalType": "string",
          "name": "",
          "type": "string"
        }
      ],
      "stateMutability": "view",
      "type": "function"
    },
    {
      "inputs": [
        {
          "internalType": "uint256",
          "name": "tokenId",
          "type": "uint256"
        }
      ],
      "name": "getApproved",
      "outputs": [
        {
          "internalType": "address",
          "name": "",
          "type": "address"
        }
      ],
      "stateMutability": "view",
      "type": "function"
    },
    {
      "inputs": [],
      "name": "getBaseURI",
      "outputs": [
        {
          "internalType": "string",
          "name": "",
          "type": "string"
        }
      ],
      "stateMutability": "view",
      "type": "function"
    },
    {
      "inputs": [],
      "name": "getContractURI",
      "outputs": [
        {
          "internalType": "string",
          "name": "",
          "type": "string"
        }
      ],
      "stateMutability": "view",
      "type": "function"
    },
    {
      "inputs": [],
      "name": "getLastTokenId",
      "outputs": [
        {
          "internalType": "uint256",
          "name": "",
          "type": "uint256"
        }
      ],
      "stateMutability": "view",
      "type": "function"
    },
    {
      "inputs": [
        {
          "internalType": "address",
          "name": "owner",
          "type": "address"
        },
        {
          "internalType": "address",
          "name": "operator",
          "type": "address"
        }
      ],
      "name": "isApprovedForAll",
      "outputs": [
        {
          "internalType": "bool",
          "name": "",
          "type": "bool"
        }
      ],
      "stateMutability": "view",
      "type": "function"
    },
    {
      "inputs": [
        {
          "internalType": "uint256",
          "name": "tokenId",
          "type": "uint256"
        }
      ],
      "name": "mint",
      "outputs": [],
      "stateMutability": "payable",
      "type": "function"
    },
    {
      "inputs": [],
      "name": "name",
      "outputs": [
        {
          "internalType": "string",
          "name": "",
          "type": "string"
        }
      ],
      "stateMutability": "view",
      "type": "function"
    },
    {
      "inputs": [],
      "name": "numReservedTokens",
      "outputs": [
        {
          "internalType": "uint256",
          "name": "",
          "type": "uint256"
        }
      ],
      "stateMutability": "view",
      "type": "function"
    },
    {
      "inputs": [],
      "name": "owner",
      "outputs": [
        {
          "internalType": "address",
          "name": "",
          "type": "address"
        }
      ],
      "stateMutability": "view",
      "type": "function"
    },
    {
      "inputs": [
        {
          "internalType": "uint256",
          "name": "tokenId",
          "type": "uint256"
        }
      ],
      "name": "ownerOf",
      "outputs": [
        {
          "internalType": "address",
          "name": "",
          "type": "address"
        }
      ],
      "stateMutability": "view",
      "type": "function"
    },
    {
      "inputs": [],
      "name": "renounceOwnership",
      "outputs": [],
      "stateMutability": "nonpayable",
      "type": "function"
    },
    {
      "inputs": [
        {
          "internalType": "address",
          "name": "from",
          "type": "address"
        },
        {
          "internalType": "address",
          "name": "to",
          "type": "address"
        },
        {
          "internalType": "uint256",
          "name": "tokenId",
          "type": "uint256"
        }
      ],
      "name": "safeTransferFrom",
      "outputs": [],
      "stateMutability": "nonpayable",
      "type": "function"
    },
    {
      "inputs": [
        {
          "internalType": "address",
          "name": "from",
          "type": "address"
        },
        {
          "internalType": "address",
          "name": "to",
          "type": "address"
        },
        {
          "internalType": "uint256",
          "name": "tokenId",
          "type": "uint256"
        },
        {
          "internalType": "bytes",
          "name": "data",
          "type": "bytes"
        }
      ],
      "name": "safeTransferFrom",
      "outputs": [],
      "stateMutability": "nonpayable",
      "type": "function"
    },
    {
      "inputs": [
        {
          "internalType": "bytes32",
          "name": "merkleRoot",
          "type": "bytes32"
        }
      ],
      "name": "setAdminMerkleRoot",
      "outputs": [],
      "stateMutability": "nonpayable",
      "type": "function"
    },
    {
      "inputs": [
        {
          "internalType": "address",
          "name": "operator",
          "type": "address"
        },
        {
          "internalType": "bool",
          "name": "approved",
          "type": "bool"
        }
      ],
      "name": "setApprovalForAll",
      "outputs": [],
      "stateMutability": "nonpayable",
      "type": "function"
    },
    {
      "inputs": [
        {
          "internalType": "string",
          "name": "_baseURI",
          "type": "string"
        }
      ],
      "name": "setBaseURI",
      "outputs": [],
      "stateMutability": "nonpayable",
      "type": "function"
    },
    {
      "inputs": [
        {
          "internalType": "string",
          "name": "_collectionURI",
          "type": "string"
        }
      ],
      "name": "setCollectionURI",
      "outputs": [],
      "stateMutability": "nonpayable",
      "type": "function"
    },
    {
      "inputs": [
        {
          "internalType": "bytes4",
          "name": "interfaceId",
          "type": "bytes4"
        }
      ],
      "name": "supportsInterface",
      "outputs": [
        {
          "internalType": "bool",
          "name": "",
          "type": "bool"
        }
      ],
      "stateMutability": "view",
      "type": "function"
    },
    {
      "inputs": [],
      "name": "symbol",
      "outputs": [
        {
          "internalType": "string",
          "name": "",
          "type": "string"
        }
      ],
      "stateMutability": "view",
      "type": "function"
    },
    {
      "inputs": [
        {
          "internalType": "uint256",
          "name": "tokenId",
          "type": "uint256"
        }
      ],
      "name": "tokenURI",
      "outputs": [
        {
          "internalType": "string",
          "name": "",
          "type": "string"
        }
      ],
      "stateMutability": "view",
      "type": "function"
    },
    {
      "inputs": [
        {
          "internalType": "address",
          "name": "from",
          "type": "address"
        },
        {
          "internalType": "address",
          "name": "to",
          "type": "address"
        },
        {
          "internalType": "uint256",
          "name": "tokenId",
          "type": "uint256"
        }
      ],
      "name": "transferFrom",
      "outputs": [],
      "stateMutability": "nonpayable",
      "type": "function"
    },
    {
      "inputs": [
        {
          "internalType": "address",
          "name": "newOwner",
          "type": "address"
        }
      ],
      "name": "transferOwnership",
      "outputs": [],
      "stateMutability": "nonpayable",
      "type": "function"
    },
    {
      "inputs": [],
      "name": "withdraw",
      "outputs": [],
      "stateMutability": "nonpayable",
      "type": "function"
    },
    {
      "inputs": [
        {
          "internalType": "contract IERC20",
          "name": "token",
          "type": "address"
        }
      ],
      "name": "withdrawTokens",
      "outputs": [],
      "stateMutability": "nonpayable",
      "type": "function"
    },
    {
      "stateMutability": "payable",
      "type": "receive"
    }
  ],
  "bytecode": "0x60806040523480156200001157600080fd5b506040518060400160405280600781526020017f45636f536f756c000000000000000000000000000000000000000000000000008152506040518060400160405280600781526020017f45434f534f554c00000000000000000000000000000000000000000000000000815250816000908051906020019062000096929190620001ae565b508060019080519060200190620000af929190620001ae565b505050620000d2620000c6620000e060201b60201c565b620000e860201b60201c565b6001600781905550620002c3565b600033905090565b6000600660009054906101000a900473ffffffffffffffffffffffffffffffffffffffff16905081600660006101000a81548173ffffffffffffffffffffffffffffffffffffffff021916908373ffffffffffffffffffffffffffffffffffffffff1602179055508173ffffffffffffffffffffffffffffffffffffffff168173ffffffffffffffffffffffffffffffffffffffff167f8be0079c531659141344cd1fd0a4f28419497f9722a3daafe3b4186f6b6457e060405160405180910390a35050565b828054620001bc906200025e565b90600052602060002090601f016020900481019282620001e057600085556200022c565b82601f10620001fb57805160ff19168380011785556200022c565b828001600101855582156200022c579182015b828111156200022b5782518255916020019190600101906200020e565b5b5090506200023b91906200023f565b5090565b5b808211156200025a57600081600090555060010162000240565b5090565b600060028204905060018216806200027757607f821691505b602082108114156200028e576200028d62000294565b5b50919050565b7f4e487b7100000000000000000000000000000000000000000000000000000000600052602260045260246000fd5b61372180620002d36000396000f3fe6080604052600436106101c65760003560e01c80636352211e116100f7578063a0712d6811610095578063c87b56dd11610064578063c87b56dd14610604578063e8a3d48514610641578063e985e9c51461066c578063f2fde38b146106a9576101cd565b8063a0712d681461056b578063a22cb46514610587578063b58b7992146105b0578063b88d4fde146105db576101cd565b8063715018a6116100d1578063715018a6146104d357806383c4c00d146104ea5780638da5cb5b1461051557806395d89b4114610540576101cd565b80636352211e1461042e57806370a082311461046b578063714c5398146104a8576101cd565b80632f2fe721116101645780633ccfd60b1161013e5780633ccfd60b1461039c57806342842e0e146103b357806349df728c146103dc57806355f804b314610405576101cd565b80632f2fe7211461031d57806333039d3d1461034657806337929eb414610371576101cd565b8063095ea7b3116101a0578063095ea7b31461027757806311e3dbca146102a057806323b872dd146102cb5780632639f460146102f4576101cd565b806301ffc9a7146101d257806306fdde031461020f578063081812fc1461023a576101cd565b366101cd57005b600080fd5b3480156101de57600080fd5b506101f960048036038101906101f49190612599565b6106d2565b6040516102069190612b5d565b60405180910390f35b34801561021b57600080fd5b506102246107b4565b6040516102319190612b93565b60405180910390f35b34801561024657600080fd5b50610261600480360381019061025c9190612655565b610846565b60405161026e9190612acd565b60405180910390f35b34801561028357600080fd5b5061029e6004803603810190610299919061250b565b61088c565b005b3480156102ac57600080fd5b506102b56109a4565b6040516102c29190612df5565b60405180910390f35b3480156102d757600080fd5b506102f260048036038101906102ed9190612405565b6109aa565b005b34801561030057600080fd5b5061031b60048036038101906103169190612614565b610a0a565b005b34801561032957600080fd5b50610344600480360381019061033f9190612570565b610a2c565b005b34801561035257600080fd5b5061035b610a3e565b6040516103689190612df5565b60405180910390f35b34801561037d57600080fd5b50610386610a44565b6040516103939190612b93565b60405180910390f35b3480156103a857600080fd5b506103b1610ad6565b005b3480156103bf57600080fd5b506103da60048036038101906103d59190612405565b610b2d565b005b3480156103e857600080fd5b5061040360048036038101906103fe91906125eb565b610b4d565b005b34801561041157600080fd5b5061042c60048036038101906104279190612614565b610c74565b005b34801561043a57600080fd5b5061045560048036038101906104509190612655565b610c96565b6040516104629190612acd565b60405180910390f35b34801561047757600080fd5b50610492600480360381019061048d91906123a0565b610d48565b60405161049f9190612df5565b60405180910390f35b3480156104b457600080fd5b506104bd610e00565b6040516104ca9190612b93565b60405180910390f35b3480156104df57600080fd5b506104e8610e92565b005b3480156104f657600080fd5b506104ff610ea6565b60405161050c9190612df5565b60405180910390f35b34801561052157600080fd5b5061052a610eb7565b6040516105379190612acd565b60405180910390f35b34801561054c57600080fd5b50610555610ee1565b6040516105629190612b93565b60405180910390f35b61058560048036038101906105809190612655565b610f73565b005b34801561059357600080fd5b506105ae60048036038101906105a991906124cf565b61107a565b005b3480156105bc57600080fd5b506105c5611090565b6040516105d29190612b78565b60405180910390f35b3480156105e757600080fd5b5061060260048036038101906105fd9190612454565b611096565b005b34801561061057600080fd5b5061062b60048036038101906106269190612655565b6110f8565b6040516106389190612b93565b60405180910390f35b34801561064d57600080fd5b50610656611174565b6040516106639190612b93565b60405180910390f35b34801561067857600080fd5b50610693600480360381019061068e91906123c9565b611206565b6040516106a09190612b5d565b60405180910390f35b3480156106b557600080fd5b506106d060048036038101906106cb91906123a0565b61129a565b005b60007f80ac58cd000000000000000000000000000000000000000000000000000000007bffffffffffffffffffffffffffffffffffffffffffffffffffffffff1916827bffffffffffffffffffffffffffffffffffffffffffffffffffffffff1916148061079d57507f5b5e139f000000000000000000000000000000000000000000000000000000007bffffffffffffffffffffffffffffffffffffffffffffffffffffffff1916827bffffffffffffffffffffffffffffffffffffffffffffffffffffffff1916145b806107ad57506107ac8261131e565b5b9050919050565b6060600080546107c39061307c565b80601f01602080910402602001604051908101604052809291908181526020018280546107ef9061307c565b801561083c5780601f106108115761010080835404028352916020019161083c565b820191906000526020600020905b81548152906001019060200180831161081f57829003601f168201915b5050505050905090565b600061085182611388565b6004600083815260200190815260200160002060009054906101000a900473ffffffffffffffffffffffffffffffffffffffff169050919050565b600061089782610c96565b90508073ffffffffffffffffffffffffffffffffffffffff168373ffffffffffffffffffffffffffffffffffffffff161415610908576040517f08c379a00000000000000000000000000000000000000000000000000000000081526004016108ff90612d75565b60405180910390fd5b8073ffffffffffffffffffffffffffffffffffffffff166109276113d3565b73ffffffffffffffffffffffffffffffffffffffff1614806109565750610955816109506113d3565b611206565b5b610995576040517f08c379a000000000000000000000000000000000000000000000000000000000815260040161098c90612cf5565b60405180910390fd5b61099f83836113db565b505050565b600b5481565b6109bb6109b56113d3565b82611494565b6109fa576040517f08c379a00000000000000000000000000000000000000000000000000000000081526004016109f190612d95565b60405180910390fd5b610a05838383611529565b505050565b610a12611790565b80600a9080519060200190610a28929190612170565b5050565b610a34611790565b80600c8190555050565b6107d081565b6060600a8054610a539061307c565b80601f0160208091040260200160405190810160405280929190818152602001828054610a7f9061307c565b8015610acc5780601f10610aa157610100808354040283529160200191610acc565b820191906000526020600020905b815481529060010190602001808311610aaf57829003601f168201915b5050505050905090565b610ade611790565b60004790503373ffffffffffffffffffffffffffffffffffffffff166108fc829081150290604051600060405180830381858888f19350505050158015610b29573d6000803e3d6000fd5b5050565b610b4883838360405180602001604052806000815250611096565b505050565b610b55611790565b60008173ffffffffffffffffffffffffffffffffffffffff166370a08231306040518263ffffffff1660e01b8152600401610b909190612acd565b60206040518083038186803b158015610ba857600080fd5b505afa158015610bbc573d6000803e3d6000fd5b505050506040513d601f19601f82011682018060405250810190610be0919061267e565b90508173ffffffffffffffffffffffffffffffffffffffff1663a9059cbb33836040518363ffffffff1660e01b8152600401610c1d929190612b34565b602060405180830381600087803b158015610c3757600080fd5b505af1158015610c4b573d6000803e3d6000fd5b505050506040513d601f19601f82011682018060405250810190610c6f9190612547565b505050565b610c7c611790565b8060099080519060200190610c92929190612170565b5050565b6000806002600084815260200190815260200160002060009054906101000a900473ffffffffffffffffffffffffffffffffffffffff169050600073ffffffffffffffffffffffffffffffffffffffff168173ffffffffffffffffffffffffffffffffffffffff161415610d3f576040517f08c379a0000000000000000000000000000000000000000000000000000000008152600401610d3690612d55565b60405180910390fd5b80915050919050565b60008073ffffffffffffffffffffffffffffffffffffffff168273ffffffffffffffffffffffffffffffffffffffff161415610db9576040517f08c379a0000000000000000000000000000000000000000000000000000000008152600401610db090612c95565b60405180910390fd5b600360008373ffffffffffffffffffffffffffffffffffffffff1673ffffffffffffffffffffffffffffffffffffffff168152602001908152602001600020549050919050565b606060098054610e0f9061307c565b80601f0160208091040260200160405190810160405280929190818152602001828054610e3b9061307c565b8015610e885780601f10610e5d57610100808354040283529160200191610e88565b820191906000526020600020905b815481529060010190602001808311610e6b57829003601f168201915b5050505050905090565b610e9a611790565b610ea4600061180e565b565b6000610eb260086118d4565b905090565b6000600660009054906101000a900473ffffffffffffffffffffffffffffffffffffffff16905090565b606060018054610ef09061307c565b80601f0160208091040260200160405190810160405280929190818152602001828054610f1c9061307c565b8015610f695780601f10610f3e57610100808354040283529160200191610f69565b820191906000526020600020905b815481529060010190602001808311610f4c57829003601f168201915b5050505050905090565b60026007541415610fb9576040517f08c379a0000000000000000000000000000000000000000000000000000000008152600401610fb090612db5565b60405180910390fd5b60026007819055506107d0610fce60086118d4565b111561100f576040517f08c379a000000000000000000000000000000000000000000000000000000000815260040161100690612c75565b60405180910390fd5b600161101a33610d48565b111561105b576040517f08c379a000000000000000000000000000000000000000000000000000000000815260040161105290612cd5565b60405180910390fd5b61106533826118e2565b61106f6008611900565b600160078190555050565b61108c6110856113d3565b8383611916565b5050565b600c5481565b6110a76110a16113d3565b83611494565b6110e6576040517f08c379a00000000000000000000000000000000000000000000000000000000081526004016110dd90612d95565b60405180910390fd5b6110f284848484611a83565b50505050565b606061110382611adf565b611142576040517f08c379a000000000000000000000000000000000000000000000000000000000815260040161113990612cb5565b60405180910390fd5b600961114d83611b4b565b60405160200161115e929190612a9e565b6040516020818303038152906040529050919050565b6060600a80546111839061307c565b80601f01602080910402602001604051908101604052809291908181526020018280546111af9061307c565b80156111fc5780601f106111d1576101008083540402835291602001916111fc565b820191906000526020600020905b8154815290600101906020018083116111df57829003601f168201915b5050505050905090565b6000600560008473ffffffffffffffffffffffffffffffffffffffff1673ffffffffffffffffffffffffffffffffffffffff16815260200190815260200160002060008373ffffffffffffffffffffffffffffffffffffffff1673ffffffffffffffffffffffffffffffffffffffff16815260200190815260200160002060009054906101000a900460ff16905092915050565b6112a2611790565b600073ffffffffffffffffffffffffffffffffffffffff168173ffffffffffffffffffffffffffffffffffffffff161415611312576040517f08c379a000000000000000000000000000000000000000000000000000000000815260040161130990612bd5565b60405180910390fd5b61131b8161180e565b50565b60007f01ffc9a7000000000000000000000000000000000000000000000000000000007bffffffffffffffffffffffffffffffffffffffffffffffffffffffff1916827bffffffffffffffffffffffffffffffffffffffffffffffffffffffff1916149050919050565b61139181611adf565b6113d0576040517f08c379a00000000000000000000000000000000000000000000000000000000081526004016113c790612d55565b60405180910390fd5b50565b600033905090565b816004600083815260200190815260200160002060006101000a81548173ffffffffffffffffffffffffffffffffffffffff021916908373ffffffffffffffffffffffffffffffffffffffff160217905550808273ffffffffffffffffffffffffffffffffffffffff1661144e83610c96565b73ffffffffffffffffffffffffffffffffffffffff167f8c5be1e5ebec7d5bd14f71427d1e84f3dd0314c0f7b2291e5b200ac8c7c3b92560405160405180910390a45050565b6000806114a083610c96565b90508073ffffffffffffffffffffffffffffffffffffffff168473ffffffffffffffffffffffffffffffffffffffff1614806114e257506114e18185611206565b5b8061152057508373ffffffffffffffffffffffffffffffffffffffff1661150884610846565b73ffffffffffffffffffffffffffffffffffffffff16145b91505092915050565b8273ffffffffffffffffffffffffffffffffffffffff1661154982610c96565b73ffffffffffffffffffffffffffffffffffffffff161461159f576040517f08c379a000000000000000000000000000000000000000000000000000000000815260040161159690612bf5565b60405180910390fd5b600073ffffffffffffffffffffffffffffffffffffffff168273ffffffffffffffffffffffffffffffffffffffff16141561160f576040517f08c379a000000000000000000000000000000000000000000000000000000000815260040161160690612c35565b60405180910390fd5b61161a838383611cf8565b6116256000826113db565b6001600360008573ffffffffffffffffffffffffffffffffffffffff1673ffffffffffffffffffffffffffffffffffffffff16815260200190815260200160002060008282546116759190612f76565b925050819055506001600360008473ffffffffffffffffffffffffffffffffffffffff1673ffffffffffffffffffffffffffffffffffffffff16815260200190815260200160002060008282546116cc9190612eef565b92505081905550816002600083815260200190815260200160002060006101000a81548173ffffffffffffffffffffffffffffffffffffffff021916908373ffffffffffffffffffffffffffffffffffffffff160217905550808273ffffffffffffffffffffffffffffffffffffffff168473ffffffffffffffffffffffffffffffffffffffff167fddf252ad1be2c89b69c2b068fc378daa952ba7f163c4a11628f55a4df523b3ef60405160405180910390a461178b838383611d77565b505050565b6117986113d3565b73ffffffffffffffffffffffffffffffffffffffff166117b6610eb7565b73ffffffffffffffffffffffffffffffffffffffff161461180c576040517f08c379a000000000000000000000000000000000000000000000000000000000815260040161180390612d35565b60405180910390fd5b565b6000600660009054906101000a900473ffffffffffffffffffffffffffffffffffffffff16905081600660006101000a81548173ffffffffffffffffffffffffffffffffffffffff021916908373ffffffffffffffffffffffffffffffffffffffff1602179055508173ffffffffffffffffffffffffffffffffffffffff168173ffffffffffffffffffffffffffffffffffffffff167f8be0079c531659141344cd1fd0a4f28419497f9722a3daafe3b4186f6b6457e060405160405180910390a35050565b600081600001549050919050565b6118fc828260405180602001604052806000815250611d7c565b5050565b6001816000016000828254019250508190555050565b8173ffffffffffffffffffffffffffffffffffffffff168373ffffffffffffffffffffffffffffffffffffffff161415611985576040517f08c379a000000000000000000000000000000000000000000000000000000000815260040161197c90612c55565b60405180910390fd5b80600560008573ffffffffffffffffffffffffffffffffffffffff1673ffffffffffffffffffffffffffffffffffffffff16815260200190815260200160002060008473ffffffffffffffffffffffffffffffffffffffff1673ffffffffffffffffffffffffffffffffffffffff16815260200190815260200160002060006101000a81548160ff0219169083151502179055508173ffffffffffffffffffffffffffffffffffffffff168373ffffffffffffffffffffffffffffffffffffffff167f17307eab39ab6107e8899845ad3d59bd9653f200f220920489ca2b5937696c3183604051611a769190612b5d565b60405180910390a3505050565b611a8e848484611529565b611a9a84848484611dd7565b611ad9576040517f08c379a0000000000000000000000000000000000000000000000000000000008152600401611ad090612bb5565b60405180910390fd5b50505050565b60008073ffffffffffffffffffffffffffffffffffffffff166002600084815260200190815260200160002060009054906101000a900473ffffffffffffffffffffffffffffffffffffffff1673ffffffffffffffffffffffffffffffffffffffff1614159050919050565b60606000821415611b93576040518060400160405280600181526020017f30000000000000000000000000000000000000000000000000000000000000008152509050611cf3565b600082905060005b60008214611bc5578080611bae906130df565b915050600a82611bbe9190612f45565b9150611b9b565b60008167ffffffffffffffff811115611c07577f4e487b7100000000000000000000000000000000000000000000000000000000600052604160045260246000fd5b6040519080825280601f01601f191660200182016040528015611c395781602001600182028036833780820191505090505b5090505b60008514611cec57600182611c529190612f76565b9150600a85611c619190613128565b6030611c6d9190612eef565b60f81b818381518110611ca9577f4e487b7100000000000000000000000000000000000000000000000000000000600052603260045260246000fd5b60200101907effffffffffffffffffffffffffffffffffffffffffffffffffffffffffffff1916908160001a905350600a85611ce59190612f45565b9450611c3d565b8093505050505b919050565b600073ffffffffffffffffffffffffffffffffffffffff168373ffffffffffffffffffffffffffffffffffffffff1614611d67576040517f08c379a0000000000000000000000000000000000000000000000000000000008152600401611d5e90612dd5565b60405180910390fd5b611d72838383611f6e565b505050565b505050565b611d868383611f73565b611d936000848484611dd7565b611dd2576040517f08c379a0000000000000000000000000000000000000000000000000000000008152600401611dc990612bb5565b60405180910390fd5b505050565b6000611df88473ffffffffffffffffffffffffffffffffffffffff1661214d565b15611f61578373ffffffffffffffffffffffffffffffffffffffff1663150b7a02611e216113d3565b8786866040518563ffffffff1660e01b8152600401611e439493929190612ae8565b602060405180830381600087803b158015611e5d57600080fd5b505af1925050508015611e8e57506040513d601f19601f82011682018060405250810190611e8b91906125c2565b60015b611f11573d8060008114611ebe576040519150601f19603f3d011682016040523d82523d6000602084013e611ec3565b606091505b50600081511415611f09576040517f08c379a0000000000000000000000000000000000000000000000000000000008152600401611f0090612bb5565b60405180910390fd5b805181602001fd5b63150b7a0260e01b7bffffffffffffffffffffffffffffffffffffffffffffffffffffffff1916817bffffffffffffffffffffffffffffffffffffffffffffffffffffffff191614915050611f66565b600190505b949350505050565b505050565b600073ffffffffffffffffffffffffffffffffffffffff168273ffffffffffffffffffffffffffffffffffffffff161415611fe3576040517f08c379a0000000000000000000000000000000000000000000000000000000008152600401611fda90612d15565b60405180910390fd5b611fec81611adf565b1561202c576040517f08c379a000000000000000000000000000000000000000000000000000000000815260040161202390612c15565b60405180910390fd5b61203860008383611cf8565b6001600360008473ffffffffffffffffffffffffffffffffffffffff1673ffffffffffffffffffffffffffffffffffffffff16815260200190815260200160002060008282546120889190612eef565b92505081905550816002600083815260200190815260200160002060006101000a81548173ffffffffffffffffffffffffffffffffffffffff021916908373ffffffffffffffffffffffffffffffffffffffff160217905550808273ffffffffffffffffffffffffffffffffffffffff16600073ffffffffffffffffffffffffffffffffffffffff167fddf252ad1be2c89b69c2b068fc378daa952ba7f163c4a11628f55a4df523b3ef60405160405180910390a461214960008383611d77565b5050565b6000808273ffffffffffffffffffffffffffffffffffffffff163b119050919050565b82805461217c9061307c565b90600052602060002090601f01602090048101928261219e57600085556121e5565b82601f106121b757805160ff19168380011785556121e5565b828001600101855582156121e5579182015b828111156121e45782518255916020019190600101906121c9565b5b5090506121f291906121f6565b5090565b5b8082111561220f5760008160009055506001016121f7565b5090565b600061222661222184612e35565b612e10565b90508281526020810184848401111561223e57600080fd5b61224984828561303a565b509392505050565b600061226461225f84612e66565b612e10565b90508281526020810184848401111561227c57600080fd5b61228784828561303a565b509392505050565b60008135905061229e81613661565b92915050565b6000813590506122b381613678565b92915050565b6000815190506122c881613678565b92915050565b6000813590506122dd8161368f565b92915050565b6000813590506122f2816136a6565b92915050565b600081519050612307816136a6565b92915050565b600082601f83011261231e57600080fd5b813561232e848260208601612213565b91505092915050565b600081359050612346816136bd565b92915050565b600082601f83011261235d57600080fd5b813561236d848260208601612251565b91505092915050565b600081359050612385816136d4565b92915050565b60008151905061239a816136d4565b92915050565b6000602082840312156123b257600080fd5b60006123c08482850161228f565b91505092915050565b600080604083850312156123dc57600080fd5b60006123ea8582860161228f565b92505060206123fb8582860161228f565b9150509250929050565b60008060006060848603121561241a57600080fd5b60006124288682870161228f565b93505060206124398682870161228f565b925050604061244a86828701612376565b9150509250925092565b6000806000806080858703121561246a57600080fd5b60006124788782880161228f565b94505060206124898782880161228f565b935050604061249a87828801612376565b925050606085013567ffffffffffffffff8111156124b757600080fd5b6124c38782880161230d565b91505092959194509250565b600080604083850312156124e257600080fd5b60006124f08582860161228f565b9250506020612501858286016122a4565b9150509250929050565b6000806040838503121561251e57600080fd5b600061252c8582860161228f565b925050602061253d85828601612376565b9150509250929050565b60006020828403121561255957600080fd5b6000612567848285016122b9565b91505092915050565b60006020828403121561258257600080fd5b6000612590848285016122ce565b91505092915050565b6000602082840312156125ab57600080fd5b60006125b9848285016122e3565b91505092915050565b6000602082840312156125d457600080fd5b60006125e2848285016122f8565b91505092915050565b6000602082840312156125fd57600080fd5b600061260b84828501612337565b91505092915050565b60006020828403121561262657600080fd5b600082013567ffffffffffffffff81111561264057600080fd5b61264c8482850161234c565b91505092915050565b60006020828403121561266757600080fd5b600061267584828501612376565b91505092915050565b60006020828403121561269057600080fd5b600061269e8482850161238b565b91505092915050565b6126b081612faa565b82525050565b6126bf81612fbc565b82525050565b6126ce81612fc8565b82525050565b60006126df82612eac565b6126e98185612ec2565b93506126f9818560208601613049565b61270281613215565b840191505092915050565b600061271882612eb7565b6127228185612ed3565b9350612732818560208601613049565b61273b81613215565b840191505092915050565b600061275182612eb7565b61275b8185612ee4565b935061276b818560208601613049565b80840191505092915050565b600081546127848161307c565b61278e8186612ee4565b945060018216600081146127a957600181146127ba576127ed565b60ff198316865281860193506127ed565b6127c385612e97565b60005b838110156127e5578154818901526001820191506020810190506127c6565b838801955050505b50505092915050565b6000612803603283612ed3565b915061280e82613226565b604082019050919050565b6000612826602683612ed3565b915061283182613275565b604082019050919050565b6000612849602583612ed3565b9150612854826132c4565b604082019050919050565b600061286c601c83612ed3565b915061287782613313565b602082019050919050565b600061288f602483612ed3565b915061289a8261333c565b604082019050919050565b60006128b2601983612ed3565b91506128bd8261338b565b602082019050919050565b60006128d5601d83612ed3565b91506128e0826133b4565b602082019050919050565b60006128f8602983612ed3565b9150612903826133dd565b604082019050919050565b600061291b601283612ed3565b91506129268261342c565b602082019050919050565b600061293e601c83612ed3565b915061294982613455565b602082019050919050565b6000612961603e83612ed3565b915061296c8261347e565b604082019050919050565b6000612984602083612ed3565b915061298f826134cd565b602082019050919050565b60006129a7602083612ed3565b91506129b2826134f6565b602082019050919050565b60006129ca601883612ed3565b91506129d58261351f565b602082019050919050565b60006129ed602183612ed3565b91506129f882613548565b604082019050919050565b6000612a10602e83612ed3565b9150612a1b82613597565b604082019050919050565b6000612a33601f83612ed3565b9150612a3e826135e6565b602082019050919050565b6000612a56601a83612ed3565b9150612a618261360f565b602082019050919050565b6000612a79600183612ee4565b9150612a8482613638565b600182019050919050565b612a9881613030565b82525050565b6000612aaa8285612777565b9150612ab582612a6c565b9150612ac18284612746565b91508190509392505050565b6000602082019050612ae260008301846126a7565b92915050565b6000608082019050612afd60008301876126a7565b612b0a60208301866126a7565b612b176040830185612a8f565b8181036060830152612b2981846126d4565b905095945050505050565b6000604082019050612b4960008301856126a7565b612b566020830184612a8f565b9392505050565b6000602082019050612b7260008301846126b6565b92915050565b6000602082019050612b8d60008301846126c5565b92915050565b60006020820190508181036000830152612bad818461270d565b905092915050565b60006020820190508181036000830152612bce816127f6565b9050919050565b60006020820190508181036000830152612bee81612819565b9050919050565b60006020820190508181036000830152612c0e8161283c565b9050919050565b60006020820190508181036000830152612c2e8161285f565b9050919050565b60006020820190508181036000830152612c4e81612882565b9050919050565b60006020820190508181036000830152612c6e816128a5565b9050919050565b60006020820190508181036000830152612c8e816128c8565b9050919050565b60006020820190508181036000830152612cae816128eb565b9050919050565b60006020820190508181036000830152612cce8161290e565b9050919050565b60006020820190508181036000830152612cee81612931565b9050919050565b60006020820190508181036000830152612d0e81612954565b9050919050565b60006020820190508181036000830152612d2e81612977565b9050919050565b60006020820190508181036000830152612d4e8161299a565b9050919050565b60006020820190508181036000830152612d6e816129bd565b9050919050565b60006020820190508181036000830152612d8e816129e0565b9050919050565b60006020820190508181036000830152612dae81612a03565b9050919050565b60006020820190508181036000830152612dce81612a26565b9050919050565b60006020820190508181036000830152612dee81612a49565b9050919050565b6000602082019050612e0a6000830184612a8f565b92915050565b6000612e1a612e2b565b9050612e2682826130ae565b919050565b6000604051905090565b600067ffffffffffffffff821115612e5057612e4f6131e6565b5b612e5982613215565b9050602081019050919050565b600067ffffffffffffffff821115612e8157612e806131e6565b5b612e8a82613215565b9050602081019050919050565b60008190508160005260206000209050919050565b600081519050919050565b600081519050919050565b600082825260208201905092915050565b600082825260208201905092915050565b600081905092915050565b6000612efa82613030565b9150612f0583613030565b9250827fffffffffffffffffffffffffffffffffffffffffffffffffffffffffffffffff03821115612f3a57612f39613159565b5b828201905092915050565b6000612f5082613030565b9150612f5b83613030565b925082612f6b57612f6a613188565b5b828204905092915050565b6000612f8182613030565b9150612f8c83613030565b925082821015612f9f57612f9e613159565b5b828203905092915050565b6000612fb582613010565b9050919050565b60008115159050919050565b6000819050919050565b60007fffffffff0000000000000000000000000000000000000000000000000000000082169050919050565b600061300982612faa565b9050919050565b600073ffffffffffffffffffffffffffffffffffffffff82169050919050565b6000819050919050565b82818337600083830152505050565b60005b8381101561306757808201518184015260208101905061304c565b83811115613076576000848401525b50505050565b6000600282049050600182168061309457607f821691505b602082108114156130a8576130a76131b7565b5b50919050565b6130b782613215565b810181811067ffffffffffffffff821117156130d6576130d56131e6565b5b80604052505050565b60006130ea82613030565b91507fffffffffffffffffffffffffffffffffffffffffffffffffffffffffffffffff82141561311d5761311c613159565b5b600182019050919050565b600061313382613030565b915061313e83613030565b92508261314e5761314d613188565b5b828206905092915050565b7f4e487b7100000000000000000000000000000000000000000000000000000000600052601160045260246000fd5b7f4e487b7100000000000000000000000000000000000000000000000000000000600052601260045260246000fd5b7f4e487b7100000000000000000000000000000000000000000000000000000000600052602260045260246000fd5b7f4e487b7100000000000000000000000000000000000000000000000000000000600052604160045260246000fd5b6000601f19601f8301169050919050565b7f4552433732313a207472616e7366657220746f206e6f6e20455243373231526560008201527f63656976657220696d706c656d656e7465720000000000000000000000000000602082015250565b7f4f776e61626c653a206e6577206f776e657220697320746865207a65726f206160008201527f6464726573730000000000000000000000000000000000000000000000000000602082015250565b7f4552433732313a207472616e736665722066726f6d20696e636f72726563742060008201527f6f776e6572000000000000000000000000000000000000000000000000000000602082015250565b7f4552433732313a20746f6b656e20616c7265616479206d696e74656400000000600082015250565b7f4552433732313a207472616e7366657220746f20746865207a65726f2061646460008201527f7265737300000000000000000000000000000000000000000000000000000000602082015250565b7f4552433732313a20617070726f766520746f2063616c6c657200000000000000600082015250565b7f496e73756666696369656e7420746f6b656e732072656d61696e696e67000000600082015250565b7f4552433732313a2061646472657373207a65726f206973206e6f74206120766160008201527f6c6964206f776e65720000000000000000000000000000000000000000000000602082015250565b7f4e6f6e2d6578697374656e7420746f6b656e0000000000000000000000000000600082015250565b7f45786365656473206f6e6520746f6b656e207065722077616c6c657400000000600082015250565b7f4552433732313a20617070726f76652063616c6c6572206973206e6f7420746f60008201527f6b656e206f776e6572206e6f7220617070726f76656420666f7220616c6c0000602082015250565b7f4552433732313a206d696e7420746f20746865207a65726f2061646472657373600082015250565b7f4f776e61626c653a2063616c6c6572206973206e6f7420746865206f776e6572600082015250565b7f4552433732313a20696e76616c696420746f6b656e2049440000000000000000600082015250565b7f4552433732313a20617070726f76616c20746f2063757272656e74206f776e6560008201527f7200000000000000000000000000000000000000000000000000000000000000602082015250565b7f4552433732313a2063616c6c6572206973206e6f7420746f6b656e206f776e6560008201527f72206e6f7220617070726f766564000000000000000000000000000000000000602082015250565b7f5265656e7472616e637947756172643a207265656e7472616e742063616c6c00600082015250565b7f4572726f723a20746f6b656e20697320534f554c20424f554e44000000000000600082015250565b7f2f00000000000000000000000000000000000000000000000000000000000000600082015250565b61366a81612faa565b811461367557600080fd5b50565b61368181612fbc565b811461368c57600080fd5b50565b61369881612fc8565b81146136a357600080fd5b50565b6136af81612fd2565b81146136ba57600080fd5b50565b6136c681612ffe565b81146136d157600080fd5b50565b6136dd81613030565b81146136e857600080fd5b5056fea264697066735822122029e70f3a1a0f7b703d00bfa3a33cb5c8655cdc3e6a3b3d87983644493e5e714364736f6c63430008040033",
  "linkReferences": {},
  "deployedLinkReferences": {}
}