{
  "_format": "hh-sol-artifact-1",
  "contractName": "MyNFT",
  "sourceName": "contracts/nft.sol",
  "abi": [
    {
      "inputs": [],
      "stateMutability": "nonpayable",
      "type": "constructor"
    },
    {
      "anonymous": false,
      "inputs": [
        {
          "indexed": true,
          "internalType": "address",
          "name": "owner",
          "type": "address"
        },
        {
          "indexed": true,
          "internalType": "address",
          "name": "approved",
          "type": "address"
        },
        {
          "indexed": true,
          "internalType": "uint256",
          "name": "tokenId",
          "type": "uint256"
        }
      ],
      "name": "Approval",
      "type": "event"
    },
    {
      "anonymous": false,
      "inputs": [
        {
          "indexed": true,
          "internalType": "address",
          "name": "owner",
          "type": "address"
        },
        {
          "indexed": true,
          "internalType": "address",
          "name": "operator",
          "type": "address"
        },
        {
          "indexed": false,
          "internalType": "bool",
          "name": "approved",
          "type": "bool"
        }
      ],
      "name": "ApprovalForAll",
      "type": "event"
    },
    {
      "anonymous": false,
      "inputs": [
        {
          "indexed": true,
          "internalType": "address",
          "name": "previousOwner",
          "type": "address"
        },
        {
          "indexed": true,
          "internalType": "address",
          "name": "newOwner",
          "type": "address"
        }
      ],
      "name": "OwnershipTransferred",
      "type": "event"
    },
    {
      "anonymous": false,
      "inputs": [
        {
          "indexed": true,
          "internalType": "address",
          "name": "from",
          "type": "address"
        },
        {
          "indexed": true,
          "internalType": "address",
          "name": "to",
          "type": "address"
        },
        {
          "indexed": true,
          "internalType": "uint256",
          "name": "tokenId",
          "type": "uint256"
        }
      ],
      "name": "Transfer",
      "type": "event"
    },
    {
      "inputs": [],
      "name": "MAX_TOTAL_SUPPLY",
      "outputs": [
        {
          "internalType": "uint256",
          "name": "",
          "type": "uint256"
        }
      ],
      "stateMutability": "view",
      "type": "function"
    },
    {
      "inputs": [],
      "name": "adminMerkleRoot",
      "outputs": [
        {
          "internalType": "bytes32",
          "name": "",
          "type": "bytes32"
        }
      ],
      "stateMutability": "view",
      "type": "function"
    },
    {
      "inputs": [
        {
          "internalType": "address",
          "name": "to",
          "type": "address"
        },
        {
          "internalType": "uint256",
          "name": "tokenId",
          "type": "uint256"
        }
      ],
      "name": "approve",
      "outputs": [],
      "stateMutability": "nonpayable",
      "type": "function"
    },
    {
      "inputs": [
        {
          "internalType": "address",
          "name": "owner",
          "type": "address"
        }
      ],
      "name": "balanceOf",
      "outputs": [
        {
          "internalType": "uint256",
          "name": "",
          "type": "uint256"
        }
      ],
      "stateMutability": "view",
      "type": "function"
    },
    {
      "inputs": [],
      "name": "contractURI",
      "outputs": [
        {
          "internalType": "string",
          "name": "",
          "type": "string"
        }
      ],
      "stateMutability": "view",
      "type": "function"
    },
    {
      "inputs": [
        {
          "internalType": "uint256",
          "name": "tokenId",
          "type": "uint256"
        }
      ],
      "name": "getApproved",
      "outputs": [
        {
          "internalType": "address",
          "name": "",
          "type": "address"
        }
      ],
      "stateMutability": "view",
      "type": "function"
    },
    {
      "inputs": [],
      "name": "getBaseURI",
      "outputs": [
        {
          "internalType": "string",
          "name": "",
          "type": "string"
        }
      ],
      "stateMutability": "view",
      "type": "function"
    },
    {
      "inputs": [],
      "name": "getContractURI",
      "outputs": [
        {
          "internalType": "string",
          "name": "",
          "type": "string"
        }
      ],
      "stateMutability": "view",
      "type": "function"
    },
    {
      "inputs": [],
      "name": "getLastTokenId",
      "outputs": [
        {
          "internalType": "uint256",
          "name": "",
          "type": "uint256"
        }
      ],
      "stateMutability": "view",
      "type": "function"
    },
    {
      "inputs": [
        {
          "internalType": "address",
          "name": "owner",
          "type": "address"
        },
        {
          "internalType": "address",
          "name": "operator",
          "type": "address"
        }
      ],
      "name": "isApprovedForAll",
      "outputs": [
        {
          "internalType": "bool",
          "name": "",
          "type": "bool"
        }
      ],
      "stateMutability": "view",
      "type": "function"
    },
    {
      "inputs": [],
      "name": "mint",
      "outputs": [],
      "stateMutability": "payable",
      "type": "function"
    },
    {
      "inputs": [],
      "name": "mintState",
      "outputs": [
        {
          "internalType": "enum MyNFT.MintState",
          "name": "",
          "type": "uint8"
        }
      ],
      "stateMutability": "view",
      "type": "function"
    },
    {
      "inputs": [],
      "name": "name",
      "outputs": [
        {
          "internalType": "string",
          "name": "",
          "type": "string"
        }
      ],
      "stateMutability": "view",
      "type": "function"
    },
    {
      "inputs": [],
      "name": "numReservedTokens",
      "outputs": [
        {
          "internalType": "uint256",
          "name": "",
          "type": "uint256"
        }
      ],
      "stateMutability": "view",
      "type": "function"
    },
    {
      "inputs": [],
      "name": "owner",
      "outputs": [
        {
          "internalType": "address",
          "name": "",
          "type": "address"
        }
      ],
      "stateMutability": "view",
      "type": "function"
    },
    {
      "inputs": [
        {
          "internalType": "uint256",
          "name": "tokenId",
          "type": "uint256"
        }
      ],
      "name": "ownerOf",
      "outputs": [
        {
          "internalType": "address",
          "name": "",
          "type": "address"
        }
      ],
      "stateMutability": "view",
      "type": "function"
    },
    {
      "inputs": [],
      "name": "renounceOwnership",
      "outputs": [],
      "stateMutability": "nonpayable",
      "type": "function"
    },
    {
      "inputs": [
        {
          "internalType": "address",
          "name": "from",
          "type": "address"
        },
        {
          "internalType": "address",
          "name": "to",
          "type": "address"
        },
        {
          "internalType": "uint256",
          "name": "tokenId",
          "type": "uint256"
        }
      ],
      "name": "safeTransferFrom",
      "outputs": [],
      "stateMutability": "nonpayable",
      "type": "function"
    },
    {
      "inputs": [
        {
          "internalType": "address",
          "name": "from",
          "type": "address"
        },
        {
          "internalType": "address",
          "name": "to",
          "type": "address"
        },
        {
          "internalType": "uint256",
          "name": "tokenId",
          "type": "uint256"
        },
        {
          "internalType": "bytes",
          "name": "data",
          "type": "bytes"
        }
      ],
      "name": "safeTransferFrom",
      "outputs": [],
      "stateMutability": "nonpayable",
      "type": "function"
    },
    {
      "inputs": [
        {
          "internalType": "bytes32",
          "name": "merkleRoot",
          "type": "bytes32"
        }
      ],
      "name": "setAdminMerkleRoot",
      "outputs": [],
      "stateMutability": "nonpayable",
      "type": "function"
    },
    {
      "inputs": [
        {
          "internalType": "address",
          "name": "operator",
          "type": "address"
        },
        {
          "internalType": "bool",
          "name": "approved",
          "type": "bool"
        }
      ],
      "name": "setApprovalForAll",
      "outputs": [],
      "stateMutability": "nonpayable",
      "type": "function"
    },
    {
      "inputs": [
        {
          "internalType": "string",
          "name": "_baseURI",
          "type": "string"
        },
        {
          "internalType": "bytes32[]",
          "name": "merkleProof",
          "type": "bytes32[]"
        }
      ],
      "name": "setBaseURI",
      "outputs": [],
      "stateMutability": "nonpayable",
      "type": "function"
    },
    {
      "inputs": [
        {
          "internalType": "string",
          "name": "_collectionURI",
          "type": "string"
        }
      ],
      "name": "setCollectionURI",
      "outputs": [],
      "stateMutability": "nonpayable",
      "type": "function"
    },
    {
      "inputs": [],
      "name": "setMintActive",
      "outputs": [],
      "stateMutability": "nonpayable",
      "type": "function"
    },
    {
      "inputs": [],
      "name": "setMintInactive",
      "outputs": [],
      "stateMutability": "nonpayable",
      "type": "function"
    },
    {
      "inputs": [
        {
          "internalType": "bytes4",
          "name": "interfaceId",
          "type": "bytes4"
        }
      ],
      "name": "supportsInterface",
      "outputs": [
        {
          "internalType": "bool",
          "name": "",
          "type": "bool"
        }
      ],
      "stateMutability": "view",
      "type": "function"
    },
    {
      "inputs": [],
      "name": "symbol",
      "outputs": [
        {
          "internalType": "string",
          "name": "",
          "type": "string"
        }
      ],
      "stateMutability": "view",
      "type": "function"
    },
    {
      "inputs": [
        {
          "internalType": "uint256",
          "name": "tokenId",
          "type": "uint256"
        }
      ],
      "name": "tokenURI",
      "outputs": [
        {
          "internalType": "string",
          "name": "",
          "type": "string"
        }
      ],
      "stateMutability": "view",
      "type": "function"
    },
    {
      "inputs": [
        {
          "internalType": "address",
          "name": "from",
          "type": "address"
        },
        {
          "internalType": "address",
          "name": "to",
          "type": "address"
        },
        {
          "internalType": "uint256",
          "name": "tokenId",
          "type": "uint256"
        }
      ],
      "name": "transferFrom",
      "outputs": [],
      "stateMutability": "nonpayable",
      "type": "function"
    },
    {
      "inputs": [
        {
          "internalType": "address",
          "name": "newOwner",
          "type": "address"
        }
      ],
      "name": "transferOwnership",
      "outputs": [],
      "stateMutability": "nonpayable",
      "type": "function"
    },
    {
      "inputs": [],
      "name": "withdraw",
      "outputs": [],
      "stateMutability": "nonpayable",
      "type": "function"
    },
    {
      "inputs": [
        {
          "internalType": "contract IERC20",
          "name": "token",
          "type": "address"
        }
      ],
      "name": "withdrawTokens",
      "outputs": [],
      "stateMutability": "nonpayable",
      "type": "function"
    },
    {
      "stateMutability": "payable",
      "type": "receive"
    }
  ],
  "bytecode": "0x60806040526000600d60006101000a81548160ff0219169083600181111562000051577f4e487b7100000000000000000000000000000000000000000000000000000000600052602160045260246000fd5b02179055503480156200006357600080fd5b506040518060400160405280601081526020017f506c61737469632042616773204e4654000000000000000000000000000000008152506040518060400160405280600581526020017f50424e46540000000000000000000000000000000000000000000000000000008152508160009080519060200190620000e892919062000200565b5080600190805190602001906200010192919062000200565b50505062000124620001186200013260201b60201c565b6200013a60201b60201c565b600160078190555062000315565b600033905090565b6000600660009054906101000a900473ffffffffffffffffffffffffffffffffffffffff16905081600660006101000a81548173ffffffffffffffffffffffffffffffffffffffff021916908373ffffffffffffffffffffffffffffffffffffffff1602179055508173ffffffffffffffffffffffffffffffffffffffff168173ffffffffffffffffffffffffffffffffffffffff167f8be0079c531659141344cd1fd0a4f28419497f9722a3daafe3b4186f6b6457e060405160405180910390a35050565b8280546200020e90620002b0565b90600052602060002090601f0160209004810192826200023257600085556200027e565b82601f106200024d57805160ff19168380011785556200027e565b828001600101855582156200027e579182015b828111156200027d57825182559160200191906001019062000260565b5b5090506200028d919062000291565b5090565b5b80821115620002ac57600081600090555060010162000292565b5090565b60006002820490506001821680620002c957607f821691505b60208210811415620002e057620002df620002e6565b5b50919050565b7f4e487b7100000000000000000000000000000000000000000000000000000000600052602260045260246000fd5b613c9780620003256000396000f3fe6080604052600436106101e75760003560e01c806358cd080c11610102578063a22cb46511610095578063c87b56dd11610064578063c87b56dd1461066c578063e8a3d485146106a9578063e985e9c5146106d4578063f2fde38b14610711576101ee565b8063a22cb465146105c4578063b58b7992146105ed578063b88d4fde14610618578063c051e38a14610641576101ee565b8063715018a6116100d1578063715018a61461052c57806383c4c00d146105435780638da5cb5b1461056e57806395d89b4114610599576101ee565b806358cd080c146104705780636352211e1461048757806370a08231146104c4578063714c539814610501576101ee565b80632f2fe7211161017a57806337929eb41161014957806337929eb4146103dc5780633ccfd60b1461040757806342842e0e1461041e57806349df728c14610447576101ee565b80632f2fe721146103485780632f9e0e491461037157806333039d3d1461039a578063358338d5146103c5576101ee565b806311e3dbca116101b657806311e3dbca146102c15780631249c58b146102ec57806323b872dd146102f65780632639f4601461031f576101ee565b806301ffc9a7146101f357806306fdde0314610230578063081812fc1461025b578063095ea7b314610298576101ee565b366101ee57005b600080fd5b3480156101ff57600080fd5b5061021a600480360381019061021591906128f2565b61073a565b6040516102279190612f8a565b60405180910390f35b34801561023c57600080fd5b5061024561081c565b6040516102529190612fdb565b60405180910390f35b34801561026757600080fd5b50610282600480360381019061027d9190612a1e565b6108ae565b60405161028f9190612efa565b60405180910390f35b3480156102a457600080fd5b506102bf60048036038101906102ba9190612864565b6108f4565b005b3480156102cd57600080fd5b506102d6610a0c565b6040516102e3919061325d565b60405180910390f35b6102f4610a12565b005b34801561030257600080fd5b5061031d6004803603810190610318919061275e565b610bd5565b005b34801561032b57600080fd5b506103466004803603810190610341919061296d565b610c35565b005b34801561035457600080fd5b5061036f600480360381019061036a91906128c9565b610c57565b005b34801561037d57600080fd5b50610398600480360381019061039391906129ae565b610c69565b005b3480156103a657600080fd5b506103af610d3c565b6040516103bc919061325d565b60405180910390f35b3480156103d157600080fd5b506103da610d42565b005b3480156103e857600080fd5b506103f1610d9d565b6040516103fe9190612fdb565b60405180910390f35b34801561041357600080fd5b5061041c610e2f565b005b34801561042a57600080fd5b506104456004803603810190610440919061275e565b610e86565b005b34801561045357600080fd5b5061046e60048036038101906104699190612944565b610ea6565b005b34801561047c57600080fd5b50610485610fcd565b005b34801561049357600080fd5b506104ae60048036038101906104a99190612a1e565b611028565b6040516104bb9190612efa565b60405180910390f35b3480156104d057600080fd5b506104eb60048036038101906104e691906126f9565b6110da565b6040516104f8919061325d565b60405180910390f35b34801561050d57600080fd5b50610516611192565b6040516105239190612fdb565b60405180910390f35b34801561053857600080fd5b50610541611224565b005b34801561054f57600080fd5b50610558611238565b604051610565919061325d565b60405180910390f35b34801561057a57600080fd5b50610583611249565b6040516105909190612efa565b60405180910390f35b3480156105a557600080fd5b506105ae611273565b6040516105bb9190612fdb565b60405180910390f35b3480156105d057600080fd5b506105eb60048036038101906105e69190612828565b611305565b005b3480156105f957600080fd5b5061060261131b565b60405161060f9190612fa5565b60405180910390f35b34801561062457600080fd5b5061063f600480360381019061063a91906127ad565b611321565b005b34801561064d57600080fd5b50610656611383565b6040516106639190612fc0565b60405180910390f35b34801561067857600080fd5b50610693600480360381019061068e9190612a1e565b611396565b6040516106a09190612fdb565b60405180910390f35b3480156106b557600080fd5b506106be611412565b6040516106cb9190612fdb565b60405180910390f35b3480156106e057600080fd5b506106fb60048036038101906106f69190612722565b6114a4565b6040516107089190612f8a565b60405180910390f35b34801561071d57600080fd5b50610738600480360381019061073391906126f9565b611538565b005b60007f80ac58cd000000000000000000000000000000000000000000000000000000007bffffffffffffffffffffffffffffffffffffffffffffffffffffffff1916827bffffffffffffffffffffffffffffffffffffffffffffffffffffffff1916148061080557507f5b5e139f000000000000000000000000000000000000000000000000000000007bffffffffffffffffffffffffffffffffffffffffffffffffffffffff1916827bffffffffffffffffffffffffffffffffffffffffffffffffffffffff1916145b806108155750610814826115bc565b5b9050919050565b60606000805461082b90613509565b80601f016020809104026020016040519081016040528092919081815260200182805461085790613509565b80156108a45780601f10610879576101008083540402835291602001916108a4565b820191906000526020600020905b81548152906001019060200180831161088757829003601f168201915b5050505050905090565b60006108b982611626565b6004600083815260200190815260200160002060009054906101000a900473ffffffffffffffffffffffffffffffffffffffff169050919050565b60006108ff82611028565b90508073ffffffffffffffffffffffffffffffffffffffff168373ffffffffffffffffffffffffffffffffffffffff161415610970576040517f08c379a0000000000000000000000000000000000000000000000000000000008152600401610967906131dd565b60405180910390fd5b8073ffffffffffffffffffffffffffffffffffffffff1661098f611671565b73ffffffffffffffffffffffffffffffffffffffff1614806109be57506109bd816109b8611671565b6114a4565b5b6109fd576040517f08c379a00000000000000000000000000000000000000000000000000000000081526004016109f49061313d565b60405180910390fd5b610a078383611679565b505050565b600b5481565b60026007541415610a58576040517f08c379a0000000000000000000000000000000000000000000000000000000008152600401610a4f9061323d565b60405180910390fd5b6002600781905550600180811115610a99577f4e487b7100000000000000000000000000000000000000000000000000000000600052602160045260246000fd5b600d60009054906101000a900460ff166001811115610ae1577f4e487b7100000000000000000000000000000000000000000000000000000000600052602160045260246000fd5b14610b21576040517f08c379a0000000000000000000000000000000000000000000000000000000008152600401610b1890612ffd565b60405180910390fd5b611388610b2e6008611732565b1115610b6f576040517f08c379a0000000000000000000000000000000000000000000000000000000008152600401610b66906130dd565b60405180910390fd5b6001610b7a336110da565b10610bba576040517f08c379a0000000000000000000000000000000000000000000000000000000008152600401610bb19061319d565b60405180910390fd5b610bcb33610bc6611740565b61175b565b6001600781905550565b610be6610be0611671565b82611779565b610c25576040517f08c379a0000000000000000000000000000000000000000000000000000000008152600401610c1c9061321d565b60405180910390fd5b610c3083838361180e565b505050565b610c3d611a75565b80600a9080519060200190610c5392919061247f565b5050565b610c5f611a75565b80600c8190555050565b8181610cdf828280806020026020016040519081016040528093929190818152602001838360200280828437600081840152601f19601f82011690508083019250505050505050600c5433604051602001610cc49190612eb0565b60405160208183030381529060405280519060200120611af3565b610d1e576040517f08c379a0000000000000000000000000000000000000000000000000000000008152600401610d15906131fd565b60405180910390fd5b8460099080519060200190610d3492919061247f565b505050505050565b61138881565b610d4a611a75565b6000600d60006101000a81548160ff02191690836001811115610d96577f4e487b7100000000000000000000000000000000000000000000000000000000600052602160045260246000fd5b0217905550565b6060600a8054610dac90613509565b80601f0160208091040260200160405190810160405280929190818152602001828054610dd890613509565b8015610e255780601f10610dfa57610100808354040283529160200191610e25565b820191906000526020600020905b815481529060010190602001808311610e0857829003601f168201915b5050505050905090565b610e37611a75565b60004790503373ffffffffffffffffffffffffffffffffffffffff166108fc829081150290604051600060405180830381858888f19350505050158015610e82573d6000803e3d6000fd5b5050565b610ea183838360405180602001604052806000815250611321565b505050565b610eae611a75565b60008173ffffffffffffffffffffffffffffffffffffffff166370a08231306040518263ffffffff1660e01b8152600401610ee99190612efa565b60206040518083038186803b158015610f0157600080fd5b505afa158015610f15573d6000803e3d6000fd5b505050506040513d601f19601f82011682018060405250810190610f399190612a47565b90508173ffffffffffffffffffffffffffffffffffffffff1663a9059cbb33836040518363ffffffff1660e01b8152600401610f76929190612f61565b602060405180830381600087803b158015610f9057600080fd5b505af1158015610fa4573d6000803e3d6000fd5b505050506040513d601f19601f82011682018060405250810190610fc891906128a0565b505050565b610fd5611a75565b6001600d60006101000a81548160ff02191690836001811115611021577f4e487b7100000000000000000000000000000000000000000000000000000000600052602160045260246000fd5b0217905550565b6000806002600084815260200190815260200160002060009054906101000a900473ffffffffffffffffffffffffffffffffffffffff169050600073ffffffffffffffffffffffffffffffffffffffff168173ffffffffffffffffffffffffffffffffffffffff1614156110d1576040517f08c379a00000000000000000000000000000000000000000000000000000000081526004016110c8906131bd565b60405180910390fd5b80915050919050565b60008073ffffffffffffffffffffffffffffffffffffffff168273ffffffffffffffffffffffffffffffffffffffff16141561114b576040517f08c379a0000000000000000000000000000000000000000000000000000000008152600401611142906130fd565b60405180910390fd5b600360008373ffffffffffffffffffffffffffffffffffffffff1673ffffffffffffffffffffffffffffffffffffffff168152602001908152602001600020549050919050565b6060600980546111a190613509565b80601f01602080910402602001604051908101604052809291908181526020018280546111cd90613509565b801561121a5780601f106111ef5761010080835404028352916020019161121a565b820191906000526020600020905b8154815290600101906020018083116111fd57829003601f168201915b5050505050905090565b61122c611a75565b6112366000611b0a565b565b60006112446008611732565b905090565b6000600660009054906101000a900473ffffffffffffffffffffffffffffffffffffffff16905090565b60606001805461128290613509565b80601f01602080910402602001604051908101604052809291908181526020018280546112ae90613509565b80156112fb5780601f106112d0576101008083540402835291602001916112fb565b820191906000526020600020905b8154815290600101906020018083116112de57829003601f168201915b5050505050905090565b611317611310611671565b8383611bd0565b5050565b600c5481565b61133261132c611671565b83611779565b611371576040517f08c379a00000000000000000000000000000000000000000000000000000000081526004016113689061321d565b60405180910390fd5b61137d84848484611d3d565b50505050565b600d60009054906101000a900460ff1681565b60606113a182611d99565b6113e0576040517f08c379a00000000000000000000000000000000000000000000000000000000081526004016113d79061311d565b60405180910390fd5b60096113eb83611e05565b6040516020016113fc929190612ecb565b6040516020818303038152906040529050919050565b6060600a805461142190613509565b80601f016020809104026020016040519081016040528092919081815260200182805461144d90613509565b801561149a5780601f1061146f5761010080835404028352916020019161149a565b820191906000526020600020905b81548152906001019060200180831161147d57829003601f168201915b5050505050905090565b6000600560008473ffffffffffffffffffffffffffffffffffffffff1673ffffffffffffffffffffffffffffffffffffffff16815260200190815260200160002060008373ffffffffffffffffffffffffffffffffffffffff1673ffffffffffffffffffffffffffffffffffffffff16815260200190815260200160002060009054906101000a900460ff16905092915050565b611540611a75565b600073ffffffffffffffffffffffffffffffffffffffff168173ffffffffffffffffffffffffffffffffffffffff1614156115b0576040517f08c379a00000000000000000000000000000000000000000000000000000000081526004016115a79061303d565b60405180910390fd5b6115b981611b0a565b50565b60007f01ffc9a7000000000000000000000000000000000000000000000000000000007bffffffffffffffffffffffffffffffffffffffffffffffffffffffff1916827bffffffffffffffffffffffffffffffffffffffffffffffffffffffff1916149050919050565b61162f81611d99565b61166e576040517f08c379a0000000000000000000000000000000000000000000000000000000008152600401611665906131bd565b60405180910390fd5b50565b600033905090565b816004600083815260200190815260200160002060006101000a81548173ffffffffffffffffffffffffffffffffffffffff021916908373ffffffffffffffffffffffffffffffffffffffff160217905550808273ffffffffffffffffffffffffffffffffffffffff166116ec83611028565b73ffffffffffffffffffffffffffffffffffffffff167f8c5be1e5ebec7d5bd14f71427d1e84f3dd0314c0f7b2291e5b200ac8c7c3b92560405160405180910390a45050565b600081600001549050919050565b600061174c6008611fb2565b6117566008611732565b905090565b611775828260405180602001604052806000815250611fc8565b5050565b60008061178583611028565b90508073ffffffffffffffffffffffffffffffffffffffff168473ffffffffffffffffffffffffffffffffffffffff1614806117c757506117c681856114a4565b5b8061180557508373ffffffffffffffffffffffffffffffffffffffff166117ed846108ae565b73ffffffffffffffffffffffffffffffffffffffff16145b91505092915050565b8273ffffffffffffffffffffffffffffffffffffffff1661182e82611028565b73ffffffffffffffffffffffffffffffffffffffff1614611884576040517f08c379a000000000000000000000000000000000000000000000000000000000815260040161187b9061305d565b60405180910390fd5b600073ffffffffffffffffffffffffffffffffffffffff168273ffffffffffffffffffffffffffffffffffffffff1614156118f4576040517f08c379a00000000000000000000000000000000000000000000000000000000081526004016118eb9061309d565b60405180910390fd5b6118ff838383612023565b61190a600082611679565b6001600360008573ffffffffffffffffffffffffffffffffffffffff1673ffffffffffffffffffffffffffffffffffffffff168152602001908152602001600020600082825461195a91906133de565b925050819055506001600360008473ffffffffffffffffffffffffffffffffffffffff1673ffffffffffffffffffffffffffffffffffffffff16815260200190815260200160002060008282546119b19190613357565b92505081905550816002600083815260200190815260200160002060006101000a81548173ffffffffffffffffffffffffffffffffffffffff021916908373ffffffffffffffffffffffffffffffffffffffff160217905550808273ffffffffffffffffffffffffffffffffffffffff168473ffffffffffffffffffffffffffffffffffffffff167fddf252ad1be2c89b69c2b068fc378daa952ba7f163c4a11628f55a4df523b3ef60405160405180910390a4611a70838383612028565b505050565b611a7d611671565b73ffffffffffffffffffffffffffffffffffffffff16611a9b611249565b73ffffffffffffffffffffffffffffffffffffffff1614611af1576040517f08c379a0000000000000000000000000000000000000000000000000000000008152600401611ae89061317d565b60405180910390fd5b565b600082611b00858461202d565b1490509392505050565b6000600660009054906101000a900473ffffffffffffffffffffffffffffffffffffffff16905081600660006101000a81548173ffffffffffffffffffffffffffffffffffffffff021916908373ffffffffffffffffffffffffffffffffffffffff1602179055508173ffffffffffffffffffffffffffffffffffffffff168173ffffffffffffffffffffffffffffffffffffffff167f8be0079c531659141344cd1fd0a4f28419497f9722a3daafe3b4186f6b6457e060405160405180910390a35050565b8173ffffffffffffffffffffffffffffffffffffffff168373ffffffffffffffffffffffffffffffffffffffff161415611c3f576040517f08c379a0000000000000000000000000000000000000000000000000000000008152600401611c36906130bd565b60405180910390fd5b80600560008573ffffffffffffffffffffffffffffffffffffffff1673ffffffffffffffffffffffffffffffffffffffff16815260200190815260200160002060008473ffffffffffffffffffffffffffffffffffffffff1673ffffffffffffffffffffffffffffffffffffffff16815260200190815260200160002060006101000a81548160ff0219169083151502179055508173ffffffffffffffffffffffffffffffffffffffff168373ffffffffffffffffffffffffffffffffffffffff167f17307eab39ab6107e8899845ad3d59bd9653f200f220920489ca2b5937696c3183604051611d309190612f8a565b60405180910390a3505050565b611d4884848461180e565b611d54848484846120a9565b611d93576040517f08c379a0000000000000000000000000000000000000000000000000000000008152600401611d8a9061301d565b60405180910390fd5b50505050565b60008073ffffffffffffffffffffffffffffffffffffffff166002600084815260200190815260200160002060009054906101000a900473ffffffffffffffffffffffffffffffffffffffff1673ffffffffffffffffffffffffffffffffffffffff1614159050919050565b60606000821415611e4d576040518060400160405280600181526020017f30000000000000000000000000000000000000000000000000000000000000008152509050611fad565b600082905060005b60008214611e7f578080611e689061356c565b915050600a82611e7891906133ad565b9150611e55565b60008167ffffffffffffffff811115611ec1577f4e487b7100000000000000000000000000000000000000000000000000000000600052604160045260246000fd5b6040519080825280601f01601f191660200182016040528015611ef35781602001600182028036833780820191505090505b5090505b60008514611fa657600182611f0c91906133de565b9150600a85611f1b91906135d9565b6030611f279190613357565b60f81b818381518110611f63577f4e487b7100000000000000000000000000000000000000000000000000000000600052603260045260246000fd5b60200101907effffffffffffffffffffffffffffffffffffffffffffffffffffffffffffff1916908160001a905350600a85611f9f91906133ad565b9450611ef7565b8093505050505b919050565b6001816000016000828254019250508190555050565b611fd28383612240565b611fdf60008484846120a9565b61201e576040517f08c379a00000000000000000000000000000000000000000000000000000000081526004016120159061301d565b60405180910390fd5b505050565b505050565b505050565b60008082905060005b845181101561209e576120898286838151811061207c577f4e487b7100000000000000000000000000000000000000000000000000000000600052603260045260246000fd5b602002602001015161241a565b915080806120969061356c565b915050612036565b508091505092915050565b60006120ca8473ffffffffffffffffffffffffffffffffffffffff16612445565b15612233578373ffffffffffffffffffffffffffffffffffffffff1663150b7a026120f3611671565b8786866040518563ffffffff1660e01b81526004016121159493929190612f15565b602060405180830381600087803b15801561212f57600080fd5b505af192505050801561216057506040513d601f19601f8201168201806040525081019061215d919061291b565b60015b6121e3573d8060008114612190576040519150601f19603f3d011682016040523d82523d6000602084013e612195565b606091505b506000815114156121db576040517f08c379a00000000000000000000000000000000000000000000000000000000081526004016121d29061301d565b60405180910390fd5b805181602001fd5b63150b7a0260e01b7bffffffffffffffffffffffffffffffffffffffffffffffffffffffff1916817bffffffffffffffffffffffffffffffffffffffffffffffffffffffff191614915050612238565b600190505b949350505050565b600073ffffffffffffffffffffffffffffffffffffffff168273ffffffffffffffffffffffffffffffffffffffff1614156122b0576040517f08c379a00000000000000000000000000000000000000000000000000000000081526004016122a79061315d565b60405180910390fd5b6122b981611d99565b156122f9576040517f08c379a00000000000000000000000000000000000000000000000000000000081526004016122f09061307d565b60405180910390fd5b61230560008383612023565b6001600360008473ffffffffffffffffffffffffffffffffffffffff1673ffffffffffffffffffffffffffffffffffffffff16815260200190815260200160002060008282546123559190613357565b92505081905550816002600083815260200190815260200160002060006101000a81548173ffffffffffffffffffffffffffffffffffffffff021916908373ffffffffffffffffffffffffffffffffffffffff160217905550808273ffffffffffffffffffffffffffffffffffffffff16600073ffffffffffffffffffffffffffffffffffffffff167fddf252ad1be2c89b69c2b068fc378daa952ba7f163c4a11628f55a4df523b3ef60405160405180910390a461241660008383612028565b5050565b60008183106124325761242d8284612468565b61243d565b61243c8383612468565b5b905092915050565b6000808273ffffffffffffffffffffffffffffffffffffffff163b119050919050565b600082600052816020526040600020905092915050565b82805461248b90613509565b90600052602060002090601f0160209004810192826124ad57600085556124f4565b82601f106124c657805160ff19168380011785556124f4565b828001600101855582156124f4579182015b828111156124f35782518255916020019190600101906124d8565b5b5090506125019190612505565b5090565b5b8082111561251e576000816000905550600101612506565b5090565b60006125356125308461329d565b613278565b90508281526020810184848401111561254d57600080fd5b6125588482856134c7565b509392505050565b600061257361256e846132ce565b613278565b90508281526020810184848401111561258b57600080fd5b6125968482856134c7565b509392505050565b6000813590506125ad81613bd7565b92915050565b60008083601f8401126125c557600080fd5b8235905067ffffffffffffffff8111156125de57600080fd5b6020830191508360208202830111156125f657600080fd5b9250929050565b60008135905061260c81613bee565b92915050565b60008151905061262181613bee565b92915050565b60008135905061263681613c05565b92915050565b60008135905061264b81613c1c565b92915050565b60008151905061266081613c1c565b92915050565b600082601f83011261267757600080fd5b8135612687848260208601612522565b91505092915050565b60008135905061269f81613c33565b92915050565b600082601f8301126126b657600080fd5b81356126c6848260208601612560565b91505092915050565b6000813590506126de81613c4a565b92915050565b6000815190506126f381613c4a565b92915050565b60006020828403121561270b57600080fd5b60006127198482850161259e565b91505092915050565b6000806040838503121561273557600080fd5b60006127438582860161259e565b92505060206127548582860161259e565b9150509250929050565b60008060006060848603121561277357600080fd5b60006127818682870161259e565b93505060206127928682870161259e565b92505060406127a3868287016126cf565b9150509250925092565b600080600080608085870312156127c357600080fd5b60006127d18782880161259e565b94505060206127e28782880161259e565b93505060406127f3878288016126cf565b925050606085013567ffffffffffffffff81111561281057600080fd5b61281c87828801612666565b91505092959194509250565b6000806040838503121561283b57600080fd5b60006128498582860161259e565b925050602061285a858286016125fd565b9150509250929050565b6000806040838503121561287757600080fd5b60006128858582860161259e565b9250506020612896858286016126cf565b9150509250929050565b6000602082840312156128b257600080fd5b60006128c084828501612612565b91505092915050565b6000602082840312156128db57600080fd5b60006128e984828501612627565b91505092915050565b60006020828403121561290457600080fd5b60006129128482850161263c565b91505092915050565b60006020828403121561292d57600080fd5b600061293b84828501612651565b91505092915050565b60006020828403121561295657600080fd5b600061296484828501612690565b91505092915050565b60006020828403121561297f57600080fd5b600082013567ffffffffffffffff81111561299957600080fd5b6129a5848285016126a5565b91505092915050565b6000806000604084860312156129c357600080fd5b600084013567ffffffffffffffff8111156129dd57600080fd5b6129e9868287016126a5565b935050602084013567ffffffffffffffff811115612a0657600080fd5b612a12868287016125b3565b92509250509250925092565b600060208284031215612a3057600080fd5b6000612a3e848285016126cf565b91505092915050565b600060208284031215612a5957600080fd5b6000612a67848285016126e4565b91505092915050565b612a7981613412565b82525050565b612a90612a8b82613412565b6135b5565b82525050565b612a9f81613424565b82525050565b612aae81613430565b82525050565b6000612abf82613314565b612ac9818561332a565b9350612ad98185602086016134d6565b612ae2816136f5565b840191505092915050565b612af6816134b5565b82525050565b6000612b078261331f565b612b11818561333b565b9350612b218185602086016134d6565b612b2a816136f5565b840191505092915050565b6000612b408261331f565b612b4a818561334c565b9350612b5a8185602086016134d6565b80840191505092915050565b60008154612b7381613509565b612b7d818661334c565b94506001821660008114612b985760018114612ba957612bdc565b60ff19831686528186019350612bdc565b612bb2856132ff565b60005b83811015612bd457815481890152600182019150602081019050612bb5565b838801955050505b50505092915050565b6000612bf260108361333b565b9150612bfd82613713565b602082019050919050565b6000612c1560328361333b565b9150612c208261373c565b604082019050919050565b6000612c3860268361333b565b9150612c438261378b565b604082019050919050565b6000612c5b60258361333b565b9150612c66826137da565b604082019050919050565b6000612c7e601c8361333b565b9150612c8982613829565b602082019050919050565b6000612ca160248361333b565b9150612cac82613852565b604082019050919050565b6000612cc460198361333b565b9150612ccf826138a1565b602082019050919050565b6000612ce7601d8361333b565b9150612cf2826138ca565b602082019050919050565b6000612d0a60298361333b565b9150612d15826138f3565b604082019050919050565b6000612d2d60128361333b565b9150612d3882613942565b602082019050919050565b6000612d50603e8361333b565b9150612d5b8261396b565b604082019050919050565b6000612d7360208361333b565b9150612d7e826139ba565b602082019050919050565b6000612d9660208361333b565b9150612da1826139e3565b602082019050919050565b6000612db9602a8361333b565b9150612dc482613a0c565b604082019050919050565b6000612ddc60188361333b565b9150612de782613a5b565b602082019050919050565b6000612dff60218361333b565b9150612e0a82613a84565b604082019050919050565b6000612e2260218361333b565b9150612e2d82613ad3565b604082019050919050565b6000612e45602e8361333b565b9150612e5082613b22565b604082019050919050565b6000612e68601f8361333b565b9150612e7382613b71565b602082019050919050565b6000612e8b60018361334c565b9150612e9682613b9a565b600182019050919050565b612eaa816134ab565b82525050565b6000612ebc8284612a7f565b60148201915081905092915050565b6000612ed78285612b66565b9150612ee282612e7e565b9150612eee8284612b35565b91508190509392505050565b6000602082019050612f0f6000830184612a70565b92915050565b6000608082019050612f2a6000830187612a70565b612f376020830186612a70565b612f446040830185612ea1565b8181036060830152612f568184612ab4565b905095945050505050565b6000604082019050612f766000830185612a70565b612f836020830184612ea1565b9392505050565b6000602082019050612f9f6000830184612a96565b92915050565b6000602082019050612fba6000830184612aa5565b92915050565b6000602082019050612fd56000830184612aed565b92915050565b60006020820190508181036000830152612ff58184612afc565b905092915050565b6000602082019050818103600083015261301681612be5565b9050919050565b6000602082019050818103600083015261303681612c08565b9050919050565b6000602082019050818103600083015261305681612c2b565b9050919050565b6000602082019050818103600083015261307681612c4e565b9050919050565b6000602082019050818103600083015261309681612c71565b9050919050565b600060208201905081810360008301526130b681612c94565b9050919050565b600060208201905081810360008301526130d681612cb7565b9050919050565b600060208201905081810360008301526130f681612cda565b9050919050565b6000602082019050818103600083015261311681612cfd565b9050919050565b6000602082019050818103600083015261313681612d20565b9050919050565b6000602082019050818103600083015261315681612d43565b9050919050565b6000602082019050818103600083015261317681612d66565b9050919050565b6000602082019050818103600083015261319681612d89565b9050919050565b600060208201905081810360008301526131b681612dac565b9050919050565b600060208201905081810360008301526131d681612dcf565b9050919050565b600060208201905081810360008301526131f681612df2565b9050919050565b6000602082019050818103600083015261321681612e15565b9050919050565b6000602082019050818103600083015261323681612e38565b9050919050565b6000602082019050818103600083015261325681612e5b565b9050919050565b60006020820190506132726000830184612ea1565b92915050565b6000613282613293565b905061328e828261353b565b919050565b6000604051905090565b600067ffffffffffffffff8211156132b8576132b76136c6565b5b6132c1826136f5565b9050602081019050919050565b600067ffffffffffffffff8211156132e9576132e86136c6565b5b6132f2826136f5565b9050602081019050919050565b60008190508160005260206000209050919050565b600081519050919050565b600081519050919050565b600082825260208201905092915050565b600082825260208201905092915050565b600081905092915050565b6000613362826134ab565b915061336d836134ab565b9250827fffffffffffffffffffffffffffffffffffffffffffffffffffffffffffffffff038211156133a2576133a161360a565b5b828201905092915050565b60006133b8826134ab565b91506133c3836134ab565b9250826133d3576133d2613639565b5b828204905092915050565b60006133e9826134ab565b91506133f4836134ab565b9250828210156134075761340661360a565b5b828203905092915050565b600061341d8261348b565b9050919050565b60008115159050919050565b6000819050919050565b60007fffffffff0000000000000000000000000000000000000000000000000000000082169050919050565b600061347182613412565b9050919050565b600081905061348682613bc3565b919050565b600073ffffffffffffffffffffffffffffffffffffffff82169050919050565b6000819050919050565b60006134c082613478565b9050919050565b82818337600083830152505050565b60005b838110156134f45780820151818401526020810190506134d9565b83811115613503576000848401525b50505050565b6000600282049050600182168061352157607f821691505b6020821081141561353557613534613697565b5b50919050565b613544826136f5565b810181811067ffffffffffffffff82111715613563576135626136c6565b5b80604052505050565b6000613577826134ab565b91507fffffffffffffffffffffffffffffffffffffffffffffffffffffffffffffffff8214156135aa576135a961360a565b5b600182019050919050565b60006135c0826135c7565b9050919050565b60006135d282613706565b9050919050565b60006135e4826134ab565b91506135ef836134ab565b9250826135ff576135fe613639565b5b828206905092915050565b7f4e487b7100000000000000000000000000000000000000000000000000000000600052601160045260246000fd5b7f4e487b7100000000000000000000000000000000000000000000000000000000600052601260045260246000fd5b7f4e487b7100000000000000000000000000000000000000000000000000000000600052602160045260246000fd5b7f4e487b7100000000000000000000000000000000000000000000000000000000600052602260045260246000fd5b7f4e487b7100000000000000000000000000000000000000000000000000000000600052604160045260246000fd5b6000601f19601f8301169050919050565b60008160601b9050919050565b7f4d696e74206973206e6f74206f70656e00000000000000000000000000000000600082015250565b7f4552433732313a207472616e7366657220746f206e6f6e20455243373231526560008201527f63656976657220696d706c656d656e7465720000000000000000000000000000602082015250565b7f4f776e61626c653a206e6577206f776e657220697320746865207a65726f206160008201527f6464726573730000000000000000000000000000000000000000000000000000602082015250565b7f4552433732313a207472616e736665722066726f6d20696e636f72726563742060008201527f6f776e6572000000000000000000000000000000000000000000000000000000602082015250565b7f4552433732313a20746f6b656e20616c7265616479206d696e74656400000000600082015250565b7f4552433732313a207472616e7366657220746f20746865207a65726f2061646460008201527f7265737300000000000000000000000000000000000000000000000000000000602082015250565b7f4552433732313a20617070726f766520746f2063616c6c657200000000000000600082015250565b7f496e73756666696369656e7420746f6b656e732072656d61696e696e67000000600082015250565b7f4552433732313a2061646472657373207a65726f206973206e6f74206120766160008201527f6c6964206f776e65720000000000000000000000000000000000000000000000602082015250565b7f4e6f6e2d6578697374656e7420746f6b656e0000000000000000000000000000600082015250565b7f4552433732313a20617070726f76652063616c6c6572206973206e6f7420746f60008201527f6b656e206f776e6572206e6f7220617070726f76656420666f7220616c6c0000602082015250565b7f4552433732313a206d696e7420746f20746865207a65726f2061646472657373600082015250565b7f4f776e61626c653a2063616c6c6572206973206e6f7420746865206f776e6572600082015250565b7f43616e6e6f74206d696e74206d6f7265207468616e206f6e6520746f6b656e2060008201527f7065722077616c6c657400000000000000000000000000000000000000000000602082015250565b7f4552433732313a20696e76616c696420746f6b656e2049440000000000000000600082015250565b7f4552433732313a20617070726f76616c20746f2063757272656e74206f776e6560008201527f7200000000000000000000000000000000000000000000000000000000000000602082015250565b7f4f6e6c792061646d696e2063616e2063616c6c20746869732066756e6374696f60008201527f6e00000000000000000000000000000000000000000000000000000000000000602082015250565b7f4552433732313a2063616c6c6572206973206e6f7420746f6b656e206f776e6560008201527f72206e6f7220617070726f766564000000000000000000000000000000000000602082015250565b7f5265656e7472616e637947756172643a207265656e7472616e742063616c6c00600082015250565b7f2f00000000000000000000000000000000000000000000000000000000000000600082015250565b60028110613bd457613bd3613668565b5b50565b613be081613412565b8114613beb57600080fd5b50565b613bf781613424565b8114613c0257600080fd5b50565b613c0e81613430565b8114613c1957600080fd5b50565b613c258161343a565b8114613c3057600080fd5b50565b613c3c81613466565b8114613c4757600080fd5b50565b613c53816134ab565b8114613c5e57600080fd5b5056fea2646970667358221220e007245f47c112fdbe1c8185b46487db8974b1db170901852e7345b81f909a4a64736f6c63430008040033",
  "linkReferences": {},
  "deployedLinkReferences": {}
}